:100000000C94B3000C94D4000C94D4000C94D40041
:100010000C94D4000C9400120C94D3110C94D400C2
:100020000C94D4000C94D4000C94D4000C94D40000
:100030000C94D4000C94D4000C94D4000C94D400F0
:100040000C94D4000C94D4000C94D4000C94D400E0
:100050000C94D4000C94D4000C94D4000C94D400D0
:100060000C94D4000C94D4000C94D4000C94D400C0
:100070000C94D4000C94D4000C94D4000C94D400B0
:100080000C94D4000C94D4000C94D4000C94D400A0
:100090000C94D4000C94D4000C94D4000C94D40090
:1000A0000C94D4000C94D4000C94D4000C94D40080
:1000B0000C94D4000C94D4000C94D4000C94D40070
:1000C0000C94D4000C94D4000C94D4000C94D40060
:1000D0000C94D4000C94D4000C94D4000C94D40050
:1000E0000C94D40007634236B79BD8A71A396856D8
:1000F00018AEBAAB558C1D3CB7CC5763BD6DEDFD4A
:10010000753EF6177231BF000000803F0800000006
:10011000BE922449123EABAAAA2ABECDCCCC4C3EFC
:1001200000000080BEABAAAAAA3E00000000BF00EB
:100130000000803F0000000000084178D3BB4387E7
:10014000D1133D190E3CC3BD4282AD2B3E68EC82FB
:1001500076BED98FE1A93E4C80EFFFBE01C4FF7F80
:100160003F000000000011241FBECFEFD1E2DEBF30
:10017000CDBF00E00CBF12E0A0E0B2E0E0E0F0E3B1
:1001800000E00BBF02C007900D92AA30B107D9F76B
:1001900012E0AAE0B2E001C01D92AA33B107E1F774
:1001A0000E945E140C94FE170C9400000F931F9392
:1001B000CF93DF93CDB7DEB7C057D1090FB6F89410
:1001C000DEBF0FBECDBF80E090E0A0E8BFE3898333
:1001D0009A83AB83BC8326E636E646E655E469811E
:1001E0007A818B819C810E943616DC01CB018D8344
:1001F0009E83AF83B88720E030E040E85FE36D8105
:100200007E818F8198850E94E31488232CF481E0FD
:1002100090E09A8789873FC020E03FEF4FE757E49F
:100220006D817E818F8198850E94321618164CF55B
:1002300020E030E040E251E469817A818B819C8149
:100240000E943616DC01CB01BC01CD010E94541581
:10025000DC01CB019A8789870FC080E791E09C87FA
:100260008B878B859C850197F1F79C878B87898588
:100270009A8501979A87898789859A85009769F772
:1002800014C06D817E818F8198850E945415DC0198
:10029000CB019A87898789859A859E878D878D85E9
:1002A0009E850197F1F79E878D8788E290E028E28E
:1002B00030E0F90120812E7FFC01208388E290E06C
:1002C00028E230E0F90120812D7FFC01208388E2C3
:1002D00090E020E3FC01208388E290E028E230E017
:1002E000F90120812460FC01208380E090E0A0EAF5
:1002F000B0E48F87988BA98BBA8B26E636E646E664
:1003000055E46F85788989899A890E943616DC01BF
:10031000CB018B8B9C8BAD8BBE8B20E030E040E81B
:100320005FE36B897C898D899E890E94E314882311
:100330002CF481E090E0988F8F8B3FC020E03FEF5E
:100340004FE757E46B897C898D899E890E9432161C
:1003500018164CF520E030E040E251E46F857889D2
:1003600089899A890E943616DC01CB01BC01CD0136
:100370000E945415DC01CB01988F8F8B0FC080E752
:1003800091E09A8F898F898D9A8D0197F1F79A8FD5
:10039000898F8F89988D0197988F8F8B8F89988DF2
:1003A000009769F714C06B897C898D899E890E94AA
:1003B0005415DC01CB01988F8F8B8F89988D9C8F82
:1003C0008B8F8B8D9C8D0197F1F79C8F8B8F88E2A3
:1003D00090E028E230E0F90120812B7FFC012083AE
:1003E00080E090E0A0E8BFE38D8F9E8FAF8FB8A331
:1003F00026E636E646E655E46D8D7E8D8F8D98A116
:100400000E943616DC01CB0189A39AA3ABA3BCA33F
:1004100020E030E040E85FE369A17AA18BA19CA1D4
:100420000E94E31488232CF481E090E09EA38DA326
:100430003FC020E03FEF4FE757E469A17AA18BA1CD
:100440009CA10E94321618164CF520E030E040E2E4
:1004500051E46D8D7E8D8F8D98A10E943616DC0142
:10046000CB01BC01CD010E945415DC01CB019EA340
:100470008DA30FC080E791E098A78FA38FA198A5C7
:100480000197F1F798A78FA38DA19EA101979EA335
:100490008DA38DA19EA1009769F714C069A17AA1CF
:1004A0008BA19CA10E945415DC01CB019EA38DA3BE
:1004B0008DA19EA19AA789A789A59AA50197F1F771
:1004C0009AA789A788E290E028E230E0F90120812C
:1004D0002E7FFC01208388E290E028E230E0F901E1
:1004E00020812D7FFC01208388E290E020E3FC0145
:1004F000208388E290E028E230E0F9012081246046
:10050000FC01208380E090E0A0EAB0E48BA79CA7E8
:10051000ADA7BEA726E636E646E655E46BA57CA564
:100520008DA59EA50E943616DC01CB018FA798AB46
:10053000A9ABBAAB20E030E040E85FE36FA578A953
:1005400089A99AA90E94E31488232CF481E090E001
:100550009CAB8BAB3FC020E03FEF4FE757E46FA56C
:1005600078A989A99AA90E94321618164CF520E09C
:1005700030E040E251E46BA57CA58DA59EA50E94CC
:100580003616DC01CB01BC01CD010E945415DC0103
:10059000CB019CAB8BAB0FC080E791E09EAB8DABEA
:1005A0008DA99EA90197F1F79EAB8DAB8BA99CA954
:1005B00001979CAB8BAB8BA99CA9009769F714C0E2
:1005C0006FA578A989A99AA90E945415DC01CB01CD
:1005D0009CAB8BAB8BA99CA998AF8FAB8FA998AD27
:1005E0000197F1F798AF8FAB88E290E028E230E016
:1005F000F90120812B7FFC01208380E090E0A0E8BE
:10060000BFE389AF9AAFABAFBCAF26E636E646E6AE
:1006100055E469AD7AAD8BAD9CAD0E943616DC0118
:10062000CB019E01235C3F4FF90180839183A2831C
:10063000B38320E030E040E85FE3CE01CD96FC01DB
:1006400060817181828193810E94E31488234CF43C
:10065000CE018F5B9F4F21E030E0FC01318320838E
:1006600067C020E03FEF4FE757E4CE01CD96FC0195
:1006700060817181828193810E94321618160CF07C
:1006800046C020E030E040E251E469AD7AAD8BAD88
:100690009CAD0E943616DC01CB018E010F5B1F4F13
:1006A000BC01CD010E945415DC01CB01F8019183FE
:1006B000808324C0CE018D5B9F4F20E731E0FC0199
:1006C00031832083CE018D5B9F4FFC01808191811E
:1006D0000197F1F79E012D5B3F4FF90191838083D4
:1006E000CE018F5B9F4F9E012F5B3F4FF901208111
:1006F000318121503109FC0131832083CE018F5B90
:100700009F4FFC01808191810097A1F62BC08E0143
:100710000F5B1F4FCE01CD96FC01608171818281FC
:1007200093810E945415DC01CB01F80191838083F1
:10073000CE018B5B9F4F9E012F5B3F4FF9012081C4
:100740003181FC0131832083CE018B5B9F4FFC0103
:10075000808191810197F1F79E012B5B3F4FF90159
:100760009183808388E290E028E230E0F9012081E3
:100770002E7FFC01208388E290E028E230E0F9013E
:1007800020812D7FFC01208388E290E020E3FC01A2
:10079000208388E290E028E230E0F90120812460A3
:1007A000FC0120839E01295B3F4F80E090E0A0EA9E
:1007B000B0E4F90180839183A283B3838E01055B4A
:1007C0001F4FCE01895B9F4F26E636E646E655E48D
:1007D000FC0160817181828193810E943616DC0167
:1007E000CB01F80180839183A283B383CE01855B23
:1007F0009F4F20E030E040E85FE3FC0160817181C1
:10080000828193810E94E31488234CF4CE01815BA2
:100810009F4F21E030E0FC01318320836DC0CE0189
:10082000855B9F4F20E03FEF4FE757E4FC0160817D
:100830007181828193810E94321618160CF04AC091
:10084000CE01895B9F4F20E030E040E251E4FC01A3
:1008500060817181828193810E943616DC01CB0117
:100860008E01015B1F4FBC01CD010E945415DC01BC
:10087000CB01F8019183808324C0CE018F5A9F4F12
:1008800020E731E0FC0131832083CE018F5A9F4F56
:10089000FC01808191810197F1F79E012F5A3F4F12
:1008A000F90191838083CE01815B9F4F9E01215B83
:1008B0003F4FF9012081318121503109FC01318301
:1008C0002083CE01815B9F4FFC0180819181009745
:1008D000A1F62CC08E01015B1F4FCE01855B9F4F9F
:1008E000FC0160817181828193810E945415DC0139
:1008F000CB01F80191838083CE018D5A9F4F9E01D9
:10090000215B3F4FF90120813181FC01318320833C
:10091000CE018D5A9F4FFC01808191810197F1F7A3
:100920009E012D5A3F4FF9019183808388E290E028
:1009300028E230E0F90120812B7FFC0120839E0119
:100940002B5A3F4F80E090E0A0E8BFE3F90180839D
:100950009183A283B3838E01075A1F4FCE018B5A16
:100960009F4F26E636E646E655E4FC01608171813C
:10097000828193810E943616DC01CB01F8018083CD
:100980009183A283B383CE01875A9F4F20E030E04A
:1009900040E85FE3FC0160817181828193810E9464
:1009A000E31488234CF4CE01835A9F4F21E030E0BA
:1009B000FC01318320836DC0CE01875A9F4F20E018
:1009C0003FEF4FE757E4FC016081718182819381A1
:1009D0000E94321618160CF04AC0CE018B5A9F4F57
:1009E00020E030E040E251E4FC01608171818281CD
:1009F00093810E943616DC01CB018E01035A1F4FF2
:100A0000BC01CD010E945415DC01CB01F80191839A
:100A1000808324C0CE01815A9F4F20E731E0FC0142
:100A200031832083CE01815A9F4FFC0180819181C7
:100A30000197F1F79E01215A3F4FF901918380837D
:100A4000CE01835A9F4F9E01235A3F4FF9012081C7
:100A5000318121503109FC0131832083CE01835A39
:100A60009F4FFC01808191810097A1F62CC08E01DF
:100A7000035A1F4FCE01875A9F4FFC01608171813D
:100A8000828193810E945415DC01CB01F80191838E
:100A90008083CE018F599F4F9E01235A3F4FF9010A
:100AA00020813181FC0131832083CE018F599F4FFA
:100AB000FC01808191810197F1F79E012F593F4FF1
:100AC000F9019183808388E290E028E230E0F90127
:100AD00020812E7FFC01208388E290E028E230E034
:100AE000F90120812D7FFC01208388E290E020E243
:100AF000FC01208388E290E028E230E0F9012081C7
:100B00002460FC0120839E012D593F4F80E090E03E
:100B1000A0EAB0E4F90180839183A283B3838E01BC
:100B200009591F4FCE018D599F4F26E636E646E6FE
:100B300055E4FC0160817181828193810E943616A7
:100B4000DC01CB01F80180839183A283B383CE01C2
:100B500089599F4F20E030E040E85FE3FC0160816D
:100B60007181828193810E94E31488234CF4CE0129
:100B700085599F4F21E030E0FC01318320836DC017
:100B8000CE0189599F4F20E03FEF4FE757E4FC012A
:100B900060817181828193810E94321618160CF057
:100BA0004AC0CE018D599F4F20E030E040E251E431
:100BB000FC0160817181828193810E943616DC0183
:100BC000CB018E0105591F4FBC01CD010E94541568
:100BD000DC01CB01F8019183808324C0CE018359CD
:100BE0009F4F20E731E0FC0131832083CE01835900
:100BF0009F4FFC01808191810197F1F79E0123595C
:100C00003F4FF90191838083CE0185599F4F9E010B
:100C100025593F4FF9012081318121503109FC01D3
:100C200031832083CE0185599F4FFC0180819181C2
:100C30000097A1F62CC08E0105591F4FCE0189598E
:100C40009F4FFC0160817181828193810E945415C4
:100C5000DC01CB01F80191838083CE0181599F4F44
:100C60009E0125593F4FF90120813181FC013183DB
:100C70002083CE0181599F4FFC0180819181019792
:100C8000F1F79E0121593F4FF9019183808388E25A
:100C900090E028E230E0F90120812B7FFC012083E5
:100CA000C059DF4F0FB6F894DEBF0FBECDBFDF9146
:100CB000CF911F910F910895CF93DF93CDB7DEB7FA
:100CC0002E970FB6F894DEBF0FBECDBF80E090E048
:100CD000A0E8BFE389839A83AB83BC8326E636E62C
:100CE00046E655E469817A818B819C810E943616A3
:100CF000DC01CB018D839E83AF83B88720E030E099
:100D000040E85FE36D817E818F8198850E94E314C6
:100D100088232CF481E090E09A8789873FC020E007
:100D20003FEF4FE757E46D817E818F8198850E9468
:100D3000321618164CF520E030E040E251E46981AB
:100D40007A818B819C810E943616DC01CB01BC012B
:100D5000CD010E945415DC01CB019A8789870FC011
:100D600080E791E09C878B878B859C850197F1F7C5
:100D70009C878B8789859A8501979A87898789853A
:100D80009A85009769F714C06D817E818F8198855F
:100D90000E945415DC01CB019A87898789859A8541
:100DA0009E878D878D859E850197F1F79E878D871C
:100DB00088E20E94F00681E00E94F00686E00E9430
:100DC000F0068EE00E94F00680E80E94F0062E9663
:100DD0000FB6F894DEBF0FBECDBFDF91CF9108955F
:100DE000CF93DF93CDB7DEB76E970FB6F894DEBF23
:100DF0000FBECDBF8E8F8E8D89838981807F898341
:100E000088E290E028E230E0F90120812F70FC01B7
:100E1000208388E290E028E230E0F90130812981E6
:100E2000232BFC01208388E290E028E230E0F901E6
:100E300020812E7FFC01208388E290E028E230E0D0
:100E4000F90120812D7FFC01208388E290E028E2D7
:100E500030E0F90120812460FC01208380E090E0F3
:100E6000A0EAB0E48A839B83AC83BD8326E636E6A2
:100E700046E655E46A817B818C819D810E9436160D
:100E8000DC01CB018E839F83A887B98720E030E007
:100E900040E85FE36E817F81888599850E94E31435
:100EA00088232CF481E090E09B878A873FC020E074
:100EB0003FEF4FE757E46E817F81888599850E94D7
:100EC000321618164CF520E030E040E251E46A8119
:100ED0007B818C819D810E943616DC01CB01BC0197
:100EE000CD010E945415DC01CB019B878A870FC07E
:100EF00080E791E09D878C878C859D850197F1F730
:100F00009D878C878A859B8501979B878A878A85A1
:100F10009B85009769F714C06E817F8188859985CC
:100F20000E945415DC01CB019B878A878A859B85AB
:100F30009F878E878E859F850197F1F79F878E8784
:100F400088E290E028E230E0F90120812B7FFC016B
:100F500020838E8D8F708E8F8E8D8295807F8E8F69
:100F600088E290E028E230E0F90120812F70FC0156
:100F7000208388E290E028E230E0F90130812E8D74
:100F8000232BFC01208388E290E028E230E0F90185
:100F900020812E7FFC01208388E290E028E230E06F
:100FA000F90120812D7FFC01208388E290E028E276
:100FB00030E0F90120812460FC01208380E090E092
:100FC000A0EAB0E4888B998BAA8BBB8B26E636E629
:100FD00046E655E4688979898A899B890E94361694
:100FE000DC01CB018C8B9D8BAE8BBF8B20E030E086
:100FF00040E85FE36C897D898E899F890E94E314B4
:1010000088232CF481E090E0998F888F3FC020E006
:101010003FEF4FE757E46C897D898E899F890E9455
:10102000321618164CF520E030E040E251E46889B1
:1010300079898A899B890E943616DC01CB01BC0123
:10104000CD010E945415DC01CB01998F888F0FC010
:1010500080E791E09B8F8A8F8A8D9B8D0197F1F7B6
:101060009B8F8A8F888D998D0197998F888F888D16
:10107000998D009769F714C06C897D898E899F8945
:101080000E945415DC01CB01998F888F888D998D32
:101090009D8F8C8F8C8D9D8D0197F1F79D8F8C8FFF
:1010A00088E290E028E230E0F90120812B7FFC010A
:1010B00020836E960FB6F894DEBF0FBECDBFDF91D2
:1010C000CF910895CF93DF93CDB7DEB76E970FB66C
:1010D000F894DEBF0FBECDBF8E8F8E8D8983898140
:1010E000807F898388E290E028E230E0F901208166
:1010F0002F70FC01208388E290E028E230E0F901C3
:101100002081322F2981232BFC01208388E290E06B
:1011100028E230E0F90120812160FC01208388E28F
:1011200090E028E230E0F90120812D7FFC0120834E
:1011300088E290E028E230E0F90120812460FC019F
:10114000208380E090E0A0EAB0E48A839B83AC83B4
:10115000BD8326E636E646E655E46A817B818C81CE
:101160009D810E943616DC01CB018E839F83A88768
:10117000B98720E030E040E85FE36E817F818885B9
:1011800099850E94E31488232CF481E090E09B87EA
:101190008A873FC020E03FEF4FE757E46E817F81B1
:1011A000888599850E94321618164CF520E030E0AB
:1011B00040E251E46A817B818C819D810E943616D8
:1011C000DC01CB01BC01CD010E945415DC01CB0137
:1011D0009B878A870FC080E791E09D878C878C85ED
:1011E0009D850197F1F79D878C878A859B8501975F
:1011F0009B878A878A859B85009769F714C06E81D3
:101200007F81888599850E945415DC01CB019B87DD
:101210008A878A859B859F878E878E859F85019784
:10122000F1F79F878E8788E290E028E230E0F901AD
:1012300020812B7FFC0120838E8D8F708E8F8E8D71
:10124000992787FD909582959295907F9827807F2A
:1012500098278E8F88E290E028E230E0F901208123
:101260002F70FC01208388E290E028E230E0F90151
:101270002081322F2E8D232BFC01208388E290E0E9
:1012800028E230E0F90120812160FC01208388E21E
:1012900090E028E230E0F90120812D7FFC012083DD
:1012A00088E290E028E230E0F90120812460FC012E
:1012B000208380E090E0A0EAB0E4888B998BAA8B31
:1012C000BB8B26E636E646E655E4688979898A8945
:1012D0009B890E943616DC01CB018C8B9D8BAE8BDB
:1012E000BF8B20E030E040E85FE36C897D898E8928
:1012F0009F890E94E31488232CF481E090E0998F69
:10130000888F3FC020E03FEF4FE757E46C897D892D
:101310008E899F890E94321618164CF520E030E025
:1013200040E251E4688979898A899B890E9436164E
:10133000DC01CB01BC01CD010E945415DC01CB01C5
:10134000998F888F0FC080E791E09B8F8A8F8A8D5D
:101350009B8D0197F1F79B8F8A8F888D998D0197CF
:10136000998F888F888D998D009769F714C06C8943
:101370007D898E899F890E945415DC01CB01998F4C
:10138000888F888D998D9D8F8C8F8C8D9D8D0197E9
:10139000F1F79D8F8C8F88E290E028E230E0F90130
:1013A00020812B7FFC0120836E960FB6F894DEBF60
:1013B0000FBECDBFDF91CF910895CF93DF93CDB70F
:1013C000DEB780E80E94F006DF91CF910895CF93B9
:1013D000DF931F921F92CDB7DEB79A8389830BC02C
:1013E00089819A81FC0180810E94620889819A81A9
:1013F00001969A83898389819A81FC01808188235F
:1014000079F70F900F90DF91CF910895CF93DF93ED
:101410001F921F92CDB7DEB789836A83898199278E
:1014200087FD90958230910599F08330910524F4E1
:101430008130910541F01BC08330910571F08430FB
:10144000910581F014C08A8181580E94F0060FC076
:101450008A8181540E94F0060AC08A818D560E94BA
:10146000F00605C08A818D520E94F00600000F90A0
:101470000F90DF91CF910895CF93DF93CDB7DEB773
:1014800027970FB6F894DEBF0FBECDBF8A836B835C
:101490005D834C833F832E8319828A81882319F0D0
:1014A0008B81882319F40E94DD0904C06B818A8135
:1014B0000E94060A8E819F818530910519F08981ED
:1014C000813001F58C819D81929582958F7089275D
:1014D0009F7089279C01A7E4B3E00E946F14969542
:1014E00087959695879596958795C09690932102B6
:1014F0008093200280912002909121020E94620834
:1015000081E089838E819F818430910521F08981DA
:10151000813009F040C08C819D8196958795969584
:101520008795969587959C01A5ECB0E20E946F1473
:10153000929582958F7089279F70892790932802B2
:101540008093270240912702509128029A01ADEC26
:10155000BCEC0E946F149695879596958795969505
:101560008795880F991F9C01220F331F220F331F6D
:10157000820F931F9A01281B390BC901C0969093C3
:1015800039028093380280913802909139020E948A
:10159000620881E089838E819F818330910519F0F3
:1015A00089818130D1F58C819D819695879596951D
:1015B00087959C01ABE7B4E10E946F1496958795DF
:1015C000909328028093270240912702509128028D
:1015D0009A01ADECBCEC0E946F1496958795969598
:1015E000879596958795880F991F9C01220F331F29
:1015F000220F331F820F931F9A01281B390BC90139
:10160000C09690933402809333028091330290917C
:1016100034020E94620881E089838E819F8182303A
:10162000910519F089818130D1F58C819D819C01D2
:10163000ADECBCEC0E946F149695879596958795B6
:1016400096958795909328028093270240912702D0
:10165000509128029A01ADECBCEC0E946F14969553
:1016600087959695879596958795880F991F9C01E4
:10167000220F331F220F331F820F931F9A01281B43
:10168000390BC901C0969093320280933102809148
:101690003102909132020E94620881E089838E813A
:1016A0009F818130910519F08981813029F54C8124
:1016B0005D819A01ADECBCEC0E946F149695879504
:1016C0009695879596958795880F991F9C01220F6F
:1016D000331F220F331F820F931F9A01281B390BD0
:1016E000C901C096909337028093360280913602EA
:1016F000909137020E9462088E819F818630910509
:101700001CF085E40E94620827960FB6F894DEBFAD
:101710000FBECDBFDF91CF910895CF93DF9300D05F
:101720001F921F92CDB7DEB78A836B835D834C8394
:1017300019828A81882319F08B81882319F40E94E9
:10174000DD0910C06B818A810E94060A0BC08C8162
:101750009D81FC0180810E9462088C819D8101969F
:101760009D838C838C819D81FC018081882379F706
:101770000F900F900F900F900F90DF91CF910895E1
:10178000CF93DF93CDB7DEB781E291E0FC01108209
:1017900085E291E02FEFFC01208384E291E021E0DB
:1017A000FC01208389E291E0FC01108288E291E053
:1017B0002FEFFC0120838BE291E0FC0110828AE292
:1017C00091E02FEFFC0120838DE291E0FC0110827B
:1017D0008CE291E02FEFFC01208380E291E029EA86
:1017E000FC01208381E291E02BE0FC012083DF916A
:1017F000CF910895CF93DF93CDB7DEB784E290E029
:1018000024E230E0F90120812062FC01208385E29E
:1018100090E025E230E0F90120812062FC01208384
:10182000DF91CF910895CF93DF93CDB7DEB784E2F8
:1018300090E024E230E0F90120812064FC01208363
:1018400085E290E025E230E0F90120812064FC018E
:101850002083DF91CF910895CF93DF93CDB7DEB78B
:1018600084E290E024E230E0F90120812068FC016C
:10187000208385E290E025E230E0F90120812068B4
:10188000FC012083DF91CF910895CF93DF93CDB7F3
:10189000DEB781E890E0FC01108285E890E02CEF53
:1018A000FC01208384E890E021E0FC01208389E8AA
:1018B00090E023E0FC01208388E890E02FEFFC011A
:1018C00020838BE890E023E0FC0120838AE890E00D
:1018D0002FEFFC0120838DE890E023E0FC012083C2
:1018E0008CE890E02FEFFC01208387E890E023E074
:1018F000FC01208386E890E02FEFFC01208380E844
:1019000090E02BEAFC01208382E890E0FC01108249
:1019100081E890E02CE0FC012083DF91CF910895D5
:101920000F931F93CF93DF9300D01F921F92CDB7D9
:10193000DEB78D8319821A821B821C828D81882FCB
:1019400090E0A0E0B0E0BC01CD010E948015DC0178
:10195000CB012BE734E14EEE5FE3BC01CD010E94E9
:10196000E714DC01CB0120E030E04CE052E4BC01A4
:10197000CD010E947F14DC01CB0189839A83AB8364
:10198000BC8389E890E0FC01108208E810E06981DE
:101990007A818B819C810E945415DC01CB01F80176
:1019A00080830F900F900F900F900F90DF91CF9149
:1019B0001F910F9108950F931F93CF93DF9300D042
:1019C0001F921F92CDB7DEB78D8319821A821B82B8
:1019D0001C828D81882F90E0A0E0B0E0BC01CD0199
:1019E0000E948015DC01CB012BE734E14EEE5FE372
:1019F000BC01CD010E94E714DC01CB0120E030E006
:101A00004CE052E4BC01CD010E947F14DC01CB010B
:101A100089839A83AB83BC838BE890E0FC011082BE
:101A20000AE810E069817A818B819C810E945415BB
:101A3000DC01CB01F80180830F900F900F900F9085
:101A40000F90DF91CF911F910F9108950F931F93E6
:101A5000CF93DF9300D01F921F92CDB7DEB78D8357
:101A600019821A821B821C828D81882F90E0A0E04F
:101A7000B0E0BC01CD010E948015DC01CB012BE759
:101A800034E14EEE5FE3BC01CD010E94E714DC01BE
:101A9000CB0120E030E04CE052E4BC01CD010E94DB
:101AA0007F14DC01CB0189839A83AB83BC838DE8EF
:101AB00090E0FC0110820CE810E069817A818B8152
:101AC0009C810E945415DC01CB01F80180830F90AA
:101AD0000F900F900F900F90DF91CF911F910F916A
:101AE0000895CF93DF93CDB7DEB789E890E023E088
:101AF000FC01208388E890E02FEFFC012083DF9138
:101B0000CF910895CF93DF93CDB7DEB78BE890E008
:101B100023E0FC0120838AE890E02FEFFC01208382
:101B2000DF91CF910895CF93DF93CDB7DEB78DE8E6
:101B300090E023E0FC0120838CE890E02FEFFC0193
:101B40002083DF91CF910895CF93DF93CDB7DEB798
:101B500081E290E021E230E0F90120812F60FC0178
:101B6000208382E290E022E230E0F9012081207FB0
:101B7000FC0120838AE091E02AE031E0F901208134
:101B80002861FC0120838BE091E02BE031E0F9013A
:101B900020812861FC012083DF91CF910895CF93AC
:101BA000DF931F921F92CDB7DEB78A8319828A8195
:101BB0008F708A8382E290E0FC0180818983898131
:101BC000807F898399818A81892B898382E290E051
:101BD0002981FC0120830F900F90DF91CF91089510
:101BE000CF93DF931F921F92CDB7DEB789836A83AD
:101BF00088E291E02981FC0120838AE291E02A8138
:101C0000FC0120830F900F90DF91CF910895CF9327
:101C1000DF93CDB7DEB786E00E94CF0DDF91CF9185
:101C20000895CF93DF93CDB7DEB789E00E94CF0D43
:101C3000DF91CF910895CF93DF93CDB7DEB785E0E5
:101C40000E94CF0DDF91CF910895CF93DF93CDB751
:101C5000DEB78AE00E94CF0DDF91CF910895CF9338
:101C6000DF93CDB7DEB784E00E94CF0DDF91CF9137
:101C70000895CF93DF93CDB7DEB782E00E94CF0DFA
:101C8000DF91CF910895CF93DF93CDB7DEB781E099
:101C90000E94CF0DDF91CF910895CF93DF93CDB701
:101CA000DEB788E00E94CF0DDF91CF910895CF93EA
:101CB000DF93CDB7DEB780E00E94CF0DDF91CF91EB
:101CC0000895CF93DF93CDB7DEB784E091E02FEF97
:101CD000FC01208385E091E0FC011082DF91CF912F
:101CE0000895CF93DF93CDB7DEB787E290E027E288
:101CF00030E0F9012081276FFC01208388E290E029
:101D000028E230E0F90120812078FC012083DF9176
:101D1000CF910895CF93DF93CDB7DEB780E390E006
:101D2000FC01108281E390E0FC01108287E091E0E9
:101D3000FC01108288E091E0FC011082DF91CF91DC
:101D40000895CF93DF93CDB7DEB781E091E021E036
:101D500031E0F90120812C60FC01208382E091E0D8
:101D600022E031E0F9012081237FFC01208383E31D
:101D700090E023E330E0F90120812460FC0120831E
:101D800084E390E024E330E0F90120812B7FFC0123
:101D90002083DF91CF910895CF93DF93CDB7DEB746
:101DA00087E290E027E230E0F90120812860FC0121
:101DB000208388E290E028E230E0F9012081277F4B
:101DC000FC012083DF91CF910895CF93DF931F9281
:101DD000CDB7DEB7198286E290E0FC01808189836D
:101DE00089818860898388E290E02981FC012083D1
:101DF0000F90DF91CF910895CF93DF931F92CDB7CE
:101E0000DEB7198286E290E0FC01808189838981B6
:101E1000877F898388E290E02981FC0120830F90ED
:101E2000DF91CF910895CF93DF93CDB7DEB7609761
:101E30000FB6F894DEBF0FBECDBF988B8F870E9480
:101E4000E50E8F859889AA2797FDA095BA2FBC012A
:101E5000CD010E948215DC01CB0189839A83AB837B
:101E6000BC8326E636E646E655E469817A818B81B5
:101E70009C810E943616DC01CB018D839E83AF834B
:101E8000B88720E030E040E85FE36D817E818F819C
:101E900098850E94E31488232CF481E090E09A87CF
:101EA00089873FC020E03FEF4FE757E46D817E8197
:101EB0008F8198850E94321618164CF520E030E08C
:101EC00040E251E469817A818B819C810E943616BF
:101ED000DC01CB01BC01CD010E945415DC01CB011A
:101EE0009A8789870FC080E791E09C878B878B85D5
:101EF0009C850197F1F79C878B8789859A85019747
:101F00009A87898789859A85009769F714C06D81BA
:101F10007E818F8198850E945415DC01CB019A87C0
:101F2000898789859A859E878D878D859E8501976E
:101F3000F1F79E878D870E94FC0E60960FB6F8948D
:101F4000DEBF0FBECDBFDF91CF910895CF93DF935A
:101F5000CDB7DEB781EA90E0FC01108285EA90E01F
:101F60002FE1FC01208384EA90E021E0FC01208342
:101F700089EA90E0FC01108288EA90E0FC0110827E
:101F80008BEA90E0FC0110828AEA90E0FC0110826A
:101F90008DEA90E0FC0110828CEA90E0FC01108256
:101FA00087EA90E0FC01108286EA90E0FC01108252
:101FB00080EA90E0FC01108282EA90E0FC0110824D
:101FC00081EA90E024E0FC012083DF91CF91089525
:101FD000CF93DF93CDB7DEB78AE790E0FC011082A4
:101FE0008BE790E0FC0110828CE790E020E2FC019E
:101FF000208380E590E020E8FC0120838AE790E0E0
:1020000026E8FC012083DF91CF910895CF93DF93E1
:102010001F921F92CDB7DEB78A838A81883028F05D
:102020008BE790E028E0FC0120838A8187708A8317
:102030008CE790E02A812062FC0120838AE790E00F
:102040002AE730E0F90120812064FC0120830000B0
:102050008AE790E0FC018081882F90E080719927C9
:102060000097B1F389E790E0FC01808189838AE7DA
:1020700090E02AE730E0F90120812061FC01208313
:102080008BE790E0FC01108289810F900F90DF9127
:10209000CF910895CF93DF9300D0CDB7DEB789837A
:1020A0006A834B838B810E94061080932A02809161
:1020B0002A02882F90E023E030E0AC016A81898118
:1020C0000E943C0A0F900F900F90DF91CF910895DE
:1020D000CF93DF93CDB7DEB727970FB6F894DEBF67
:1020E0000FBECDBF8F838F81882F90E0A0E0B0E03E
:1020F000BC01CD010E948015DC01CB012FEE39EC33
:1021000043E95FE3BC01CD010E949916DC01CB01DC
:102110009C01AD0160E070E080E89FE30E94E7145D
:10212000DC01CB012AE939EF4EE255E4BC01CD01D7
:102130000E943616DC01CB0120E030E040E251E4A1
:10214000BC01CD010E943616DC01CB01BC01CD01E2
:102150000E944F15DC01CB01AA2797FDA095BA2F4D
:10216000BC01CD010E948215DC01CB018B839C83D5
:10217000AD83BE836B817C818D819E810E944F15D2
:10218000DC01CB019A83898389819A81813223E0A2
:10219000920720F080E293E09A83898389819A8173
:1021A00027960FB6F894DEBF0FBECDBFDF91CF915B
:1021B0000895CF93DF93CDB7DEB784E390E024E3B7
:1021C00030E0F90120812B7FFC012083DF91CF914A
:1021D0000895CF93DF93CDB7DEB784E390E024E397
:1021E00030E0F90120812460FC012083DF91CF9150
:1021F0000895CF93DF93CDB7DEB782E091E022E080
:1022000031E0F90120812B7FFC012083DF91CF9108
:102210000895CF93DF93CDB7DEB782E091E022E05F
:1022200031E0F90120812460FC012083DF91CF910E
:102230000895CF93DF93CDB7DEB782E091E022E03F
:1022400031E0F9012081277FFC012083DF91CF91CC
:102250000895CF93DF93CDB7DEB782E091E022E01F
:1022600031E0F90120812860FC012083DF91CF91CA
:102270000895CF93DF93CDB7DEB782E091E022E0FF
:1022800031E0F9012081237FFC01208384E390E089
:1022900024E330E0F90120812B7FFC012083DF91D2
:1022A000CF910895CF93DF93CDB7DEB782E091E071
:1022B00022E031E0F90120812C60FC01208384E3DD
:1022C00090E024E330E0F90120812460FC012083C8
:1022D000DF91CF910895CF93DF93CDB7DEB78DE235
:1022E00090E02DE230E0F90120812F7EFC01208377
:1022F0008EE290E02EE230E0F90120812061FC01C5
:102300002083DF91CF910895CF93DF93CDB7DEB7D0
:102310008DE290E02DE230E0F90120812F7DFC017B
:1023200020838EE290E02EE230E0F90120812062ED
:10233000FC012083DF91CF910895CF93DF93CDB738
:10234000DEB7F8948AE690E02AE630E0F9012081D1
:102350002260FC0120838DE390E02DE330E0F90161
:1023600020812061FC0120837894DF91CF91089532
:10237000CF93DF93CDB7DEB7F8948AE690E02AE6F4
:1023800030E0F90120812860FC0120838DE390E09A
:102390002DE330E0F90120812062FC012083789454
:1023A000DF91CF9108951F920F9200905F000F92DE
:1023B00011248F939F93AF93BF93CF93DF93CDB7A8
:1023C000DEB780910E0290910F02A0911002B091A1
:1023D00011020196A11DB11D80930E0290930F0270
:1023E000A0931002B0931102DF91CF91BF91AF91F2
:1023F0009F918F910F9000925F000F901F90189502
:102400001F920F9200905F000F9211248F939F9361
:10241000AF93BF93CF93DF93CDB7DEB780910A021E
:1024200090910B02A0910C02B0910D020196A11D9A
:10243000B11D80930A0290930B02A0930C02B093FB
:102440000D02DF91CF91BF91AF919F918F910F902E
:1024500000925F000F901F901895CF93DF93CDB738
:10246000DEB72A970FB6F894DEBF0FBECDBF9A87AE
:10247000898719821A821B821C821D821E821F82FA
:10248000188689859A85CC01A0E0B0E0BC01CD0119
:102490000E948015DC01CB0128E431EE42E850E4D3
:1024A000BC01CD010E94E714DC01CB0189839A8332
:1024B000AB83BC8369817A818B819C810E94541596
:1024C000DC01CB01CC01A0E0B0E08D839E83AF8323
:1024D000B88710920E0210920F0210921002109202
:1024E000110210920A0210920B0210920C0210922A
:1024F0000D0220910E0230910F0240911002509176
:10250000110271E08D819E81AF81B885281739074E
:102510004A075B0708F470E020910A0230910B0231
:1025200040910C0250910D0261E08D819E81AF813E
:10253000B885281739074A075B0708F460E0872F3A
:10254000862B882309F001C0D4CF0E94570E2A960B
:102550000FB6F894DEBF0FBECDBFDF91CF910895C7
:10256000CF93DF93CDB7DEB72A970FB6F894DEBFCF
:102570000FBECDBF9A87898719821A821B821C825F
:102580001D821E821F82188689859A85CC01A0E053
:10259000B0E0BC01CD010E948015DC01CB0125EE2D
:1025A00030ED4AEA50E4BC01CD010E94E714DC01A1
:1025B000CB0189839A83AB83BC8369817A818B81C8
:1025C0009C810E945415DC01CB018D839E83AF83D7
:1025D000B88710920E0210920F0210921002109201
:1025E000110220910E0230910F0240911002509181
:1025F00011028D819E81AF81B88582179307A40750
:10260000B50708F401C0EDCF0E94570E2A960FB609
:10261000F894DEBF0FBECDBFDF91CF910895CF9369
:10262000DF931F921F92CDB7DEB79A8389830E94F2
:10263000070E89819A810E94B0120F900F90DF914E
:10264000CF910895CF93DF931F921F92CDB7DEB73E
:102650009A8389830E94110E89819A810E94B01207
:102660000F900F90DF91CF910895CF93DF931F923A
:102670001F92CDB7DEB79A8389830E941B0E898192
:102680009A810E942D120F900F90DF91CF910895A3
:10269000CF93DF931F921F92CDB7DEB79A838983C2
:1026A0000E94250E89819A810E942D120F900F9011
:1026B000DF91CF910895CF93DF931F921F92CDB7F3
:1026C000DEB79A8389830E942F0E89819A81880FB1
:1026D000991F9A83898389819A810E942D120F9074
:1026E0000F90DF91CF910895CF93DF931F921F92A8
:1026F000CDB7DEB79A8389830E94390E89819A818A
:10270000880F991F9A83898389819A810E942D124B
:102710000F900F90DF91CF910895CF93DF931F9289
:102720001F92CDB7DEB79A8389830E94430E8981B9
:102730009A81880F991F9A83898389819A810E943F
:102740002D120F900F90DF91CF910895CF93DF93CB
:102750001F921F92CDB7DEB79A8389830E944D0ED8
:1027600089819A81880F991F9A83898389819A81A7
:102770000E942D120F900F90DF91CF910895CF936B
:10278000DF93CDB7DEB781E00E940610809316027A
:1027900080911602DF91CF910895CF93DF93CDB74B
:1027A000DEB783E00E940610809318028091180221
:1027B000DF91CF910895CF93DF93CDB7DEB782E05D
:1027C0000E9406108093170280911702DF91CF912B
:1027D0000895CF93DF93CDB7DEB787E00E94061050
:1027E0008093130280911302DF91CF910895CF93CC
:1027F000DF93CDB7DEB787E00E9406108093140206
:1028000080911402DF91CF910895CF93DF93CDB7DC
:10281000DEB787E00E9406108093150280911502B2
:10282000DF91CF910895CF93DF93CDB7DEB70E94AC
:10283000710E0E948A0E0E94A10E0E94A40D0E9499
:10284000FA0B0E94130C0E942C0C0E94CC0E0E94CA
:10285000A40D0E946B110E948411DF91CF91089505
:10286000CF93DF93CDB7DEB783E390E02FEFFC018A
:10287000208384E390E02FEFFC012083DF91CF9150
:102880000895CF93DF93CDB7DEB7F8940E94131469
:102890000E94D6000E945C060E94E80F0E94450C30
:1028A0000E94A60F0E94C00B0E949D110E94B811A9
:1028B0000E9430147894DF91CF910895CF93DF93E5
:1028C000CDB7DEB70E94411444E052E060E080E002
:1028D0000E948D0B80E090E0DF91CF910895A29F40
:1028E000B001B39FC001A39F700D811D1124911DE4
:1028F000B29F700D811D1124911D08955058BB2762
:10290000AA270ED075C166D130F06BD120F031F41A
:102910009F3F11F41EF45BC10EF4E095E7FB51C13B
:10292000E92F77D180F3BA176207730784079507F9
:1029300018F071F49EF58FC10EF4E0950B2EBA2FAE
:10294000A02D0B01B90190010C01CA01A0011124B5
:10295000FF27591B99F0593F50F4503E68F11A1661
:10296000F040A22F232F342F4427585FF3CF4695F2
:1029700037952795A795F0405395C9F77EF41F1614
:10298000BA0B620B730B840BBAF09150A1F0FF0FDE
:10299000BB1F661F771F881FC2F70EC0BA0F621FCA
:1029A000731F841F48F4879577956795B795F795BA
:1029B0009E3F08F0B3CF9395880F08F09927EE0F4C
:1029C000979587950895D9D008F481E008950CD0A3
:1029D0000FC107D140F0FED030F021F45F3F19F075
:1029E000F0C0511139C1F3C014D198F39923C9F340
:1029F0005523B1F3951B550BBB27AA276217730705
:102A0000840738F09F5F5F4F220F331F441FAA1FB8
:102A1000A9F333D00E2E3AF0E0E830D09150504078
:102A2000E695001CCAF729D0FE2F27D0660F771F26
:102A3000881FBB1F261737074807AB07B0E809F008
:102A4000BB0B802DBF01FF2793585F4F2AF09E3F9D
:102A5000510568F0B6C000C15F3FECF3983EDCF36F
:102A6000869577956795B795F7959F5FC9F7880F16
:102A7000911D9695879597F90895E1E0660F771F68
:102A8000881FBB1F621773078407BA0720F0621BF9
:102A9000730B840BBA0BEE1F88F7E095089504D0F2
:102AA0006894B111D9C00895BCD088F09F5790F0B8
:102AB000B92F9927B751A0F0D1F0660F771F881F63
:102AC000991F1AF0BA95C9F712C0B13081F0C3D07E
:102AD000B1E00895C0C0672F782F8827B85F39F01C
:102AE000B93FCCF3869577956795B395D9F73EF4C2
:102AF00090958095709561957F4F8F4F9F4F08956A
:102B0000E89409C097FB3EF4909580957095619587
:102B10007F4F8F4F9F4F9923A9F0F92F96E9BB273D
:102B20009395F695879577956795B795F111F8CFB9
:102B3000FAF4BB0F11F460FF1BC06F5F7F4F8F4F24
:102B40009F4F16C0882311F096E911C0772321F01A
:102B50009EE8872F762F05C0662371F096E8862FB2
:102B600070E060E02AF09A95660F771F881FDAF709
:102B7000880F9695879597F90895990F0008550F36
:102B8000AA0BE0E8FEEF16161706E807F907C0F0F3
:102B900012161306E407F50798F0621B730B840BFB
:102BA000950B39F40A2661F0232B242B252B21F4D5
:102BB00008950A2609F4A140A6958FEF811D811D75
:102BC000089597F99F6780E870E060E008959FEFAF
:102BD00080EC089500240A941616170618060906B4
:102BE000089500240A941216130614060506089583
:102BF000092E0394000C11F4882352F0BB0F40F40B
:102C0000BF2B11F460FF04C06F5F7F4F8F4F9F4F4A
:102C1000089557FD9058440F551F59F05F3F71F0CC
:102C20004795880F97FB991F61F09F3F79F0879533
:102C30000895121613061406551FF2CF4695F1DFBC
:102C400008C0161617061806991FF1CF869571054C
:102C5000610508940895E894BB2766277727CB0180
:102C600097F908958ADF08F48FEF08950BD0C0CF4D
:102C7000B1DF28F0B6DF18F0952309F0A2CFA7CF77
:102C80001124EACFC6DFA0F3959FD1F3950F50E052
:102C9000551F629FF001729FBB27F00DB11D639F0E
:102CA000AA27F00DB11DAA1F649F6627B00DA11DB4
:102CB000661F829F2227B00DA11D621F739FB00D5A
:102CC000A11D621F839FA00D611D221F749F3327CA
:102CD000A00D611D231F849F600D211D822F762F63
:102CE0006A2F11249F5750408AF0E1F088234AF060
:102CF000EE0FFF1FBB1F661F771F881F91505040AC
:102D0000A9F79E3F510570F05CCFA6CF5F3FECF373
:102D1000983EDCF3869577956795B795F795E79597
:102D20009F5FC1F7FE2B880F911D9695879597F9A8
:102D30000895FA01EE0FFF1F30962105310599F134
:102D40006115710561F48038BFE39B0749F1689410
:102D50009038810561F08038BFEF9B0741F09923DF
:102D600042F5FF3FE1053105210511F1E894089492
:102D7000E795D901AA2329F4AB2FBE2FF85FD0F332
:102D800010C0FF5F70F4A695E0F7F73950F019F026
:102D9000FF3A38F49F779F930CD00F9007FC905820
:102DA00008953EF014CF60E070E080E89FE308955E
:102DB0004FE79F775F934F933F932F939ED02F9131
:102DC0003F914F915F9152DF05C019F40EF0F9CE9B
:102DD00042CFFDCE26DFC8F39638C0F707F80F9232
:102DE000E8942BE33AEA48EB5FE74EDF0F920F924D
:102DF0000F924DB75EB70F92C0D0E4EEF0E016D060
:102E00004F915F91EF91FF91E595EE1FFF1F49F004
:102E1000FE57E0684427EE0F441FFA95E1F741950D
:102E2000550B32D00F9007FE26C00895DF93CF9345
:102E30001F930F93FF92EF92DF927B018C016894B6
:102E400005C0DA2EEF011EDFFE01E894A591259161
:102E5000359145915591AEF3EF0162DDFE01970189
:102E6000A801DA9479F7DF90EF90FF900F911F910E
:102E7000CF91DF9108959B01AC0160E070E080E8A4
:102E80009FE3A5CD9ECEACC0CCDEE8F39923D9F369
:102E9000940F511DBBF39150504094F059F088238A
:102EA00032F0660F771F881F91505040C1F79E3F48
:102EB000510544F7880F911D9695879597F90895C8
:102EC0005F3FACF0983E9CF0BB2786957795679561
:102ED000B79508F4B1609395C1F7BB0F58F711F49B
:102EE00060FFE8CF6F5F7F4F8F4F9F4FE3CFB4CE30
:102EF0000EF076C06CCE689464CE93DEC8F399234E
:102F0000D1F3C6F3DF93CF931F930F93FF92C92F93
:102F1000DD2788232AF02197660F771F881FDAF7AD
:102F200020E030E040E85FEB9FE3883920F0803E0E
:102F300030F021968F77E3DCECE0F1E003C0DFDCDA
:102F4000E9E3F1E073DF8B01BE01EC01FB2E6F576B
:102F500071097595771F880B990BD4DD28E132E74D
:102F600041E35FE38FDEAF2D9801AE01FF900F913B
:102F70001F91CF91DF91D4DC3BCEFA01DC01AA0F87
:102F8000BB1F9B01AC01BF5728F4222733274427DE
:102F900050781FC0B75188F4AB2F00244695379561
:102FA0002795011CA395D2F3002069F0220F331F4F
:102FB000441FB395DAF30DD0A1CC61307105A0E8C0
:102FC0008A07B94630F49B01AC016627772788272A
:102FD0009078309621F02083318342835383089583
:102FE0009F3F31F0915020F4879577956795B7957D
:102FF000880F911D9695879597F90895F894FFCFBE
:0A30000001000100746578742C00D3
:00000001FF
