:100000000C94B3000C94D4000C94D4000C94D40041
:100010000C94D4000C942A100C94FF0F0C94D40070
:100020000C94D4000C94D4000C94D4000C94D40000
:100030000C94D4000C94D4000C94D4000C94D400F0
:100040000C94D4000C94D4000C94D4000C94D400E0
:100050000C94D4000C94D4000C94D4000C94D400D0
:100060000C94D4000C94D4000C94D4000C94D400C0
:100070000C94D4000C94D4000C94D4000C94D400B0
:100080000C94D4000C94D4000C94D4000C94D400A0
:100090000C94D4000C94D4000C94D4000C94D40090
:1000A0000C94D4000C94D4000C94D4000C94D40080
:1000B0000C94D4000C94D4000C94D4000C94D40070
:1000C0000C94D4000C94D4000C94D4000C94D40060
:1000D0000C94D4000C94D4000C94D4000C94D40050
:1000E0000C94D40007634236B79BD8A71A396856D8
:1000F00018AEBAAB558C1D3CB7CC5763BD6DEDFD4A
:10010000753EF6177231BF000000803F0800000006
:10011000BE922449123EABAAAA2ABECDCCCC4C3EFC
:1001200000000080BEABAAAAAA3E00000000BF00EB
:100130000000803F0000000000084178D3BB4387E7
:10014000D1133D190E3CC3BD4282AD2B3E68EC82FB
:1001500076BED98FE1A93E4C80EFFFBE01C4FF7F80
:100160003F000000000011241FBECFEFD1E2DEBF30
:10017000CDBF00E00CBF13E0A0E0B2E0ECE1F9E39A
:1001800000E00BBF02C007900D92AC30B107D9F769
:1001900013E0ACE0B3E001C01D92AC33B107E1F76E
:1001A0000E948B120C948C1C0C9400000F931F93D4
:1001B000DF93CF93CDB7DEB7C057D0400FB6F894DA
:1001C000DEBF0FBECDBFFE01E359FF4F80E090E0E0
:1001D000A0E8BFE380839183A283B3838E01075994
:1001E0001F4FFE01E359FF4F60817181828193812E
:1001F00026E636E646E655E40E947414DC01CB019F
:10020000F80180839183A283B383FE01E759FF4FF6
:10021000608171818281938120E030E040E85FE37A
:100220000E947A16882344F4FE01E959FF4F81E0C9
:1002300090E09183808364C0FE01E759FF4F6081A5
:1002400071818281938120E03FEF4FE757E40E9464
:100250001A1618160CF043C0FE01E359FF4F6081D7
:1002600071818281938120E030E040E251E40E947C
:100270007414DC01CB018E0109591F4FBC01CD0163
:100280000E949E12DC01CB01F801918380831FC084
:10029000FE01EB59FF4F80E791E091838083FE01DF
:1002A000EB59FF4F808191810197F1F7FE01EB59E6
:1002B000FF4F91838083DE01A959BF4FFE01E959A9
:1002C000FF4F80819181019711969C938E93FE013F
:1002D000E959FF4F808191810097D1F627C08E01A7
:1002E00009591F4FFE01E759FF4F608171818281DB
:1002F00093810E949E12DC01CB01F80191838083DF
:10030000DE01AD59BF4FFE01E959FF4F8081918158
:100310008D939C93FE01ED59FF4F80819181019750
:10032000F1F7FE01ED59FF4F91838083A8E2B0E021
:10033000E8E2F0E080818E7F8C93A8E2B0E0E8E212
:10034000F0E080818D7F8C93E8E2F0E080E38083B1
:10035000A8E2B0E0E8E2F0E0808184608C93FE01E6
:10036000E15AFF4F80E090E0A0EAB0E480839183FF
:10037000A283B3838E01055A1F4FFE01E15AFF4F3E
:10038000608171818281938126E636E646E655E4F6
:100390000E947414DC01CB01F80180839183A28355
:1003A000B383FE01E55AFF4F6081718182819381A1
:1003B00020E030E040E85FE30E947A16882344F4AE
:1003C000FE01E75AFF4F81E090E09183808364C093
:1003D000FE01E55AFF4F608171818281938120E0A7
:1003E0003FEF4FE757E40E941A1618160CF043C06F
:1003F000FE01E15AFF4F608171818281938120E08B
:1004000030E040E251E40E947414DC01CB018E0123
:10041000075A1F4FBC01CD010E949E12DC01CB0187
:10042000F801918380831FC0FE01E95AFF4F80E7E6
:1004300091E091838083FE01E95AFF4F8081918191
:100440000197F1F7FE01E95AFF4F91838083DE01A6
:10045000A75ABF4FFE01E75AFF4F80819181019754
:1004600011969C938E93FE01E75AFF4F80819181F4
:100470000097D1F627C08E01075A1F4FFE01E55A9B
:10048000FF4F60817181828193810E949E12DC0105
:10049000CB01F80191838083DE01AB5ABF4FFE018F
:1004A000E75AFF4F808191818D939C93FE01EB5A17
:1004B000FF4F808191810197F1F7FE01EB5AFF4FC9
:1004C00091838083A8E2B0E0E8E2F0E080818B7F56
:1004D0008C93FE01EF5AFF4F80E090E0A0E8BFE36D
:1004E00080839183A283B3838E01035B1F4FFE0140
:1004F000EF5AFF4F608171818281938126E636E653
:1005000046E655E40E947414DC01CB01F8018083B7
:100510009183A283B383FE01E35BFF4F608171810E
:100520008281938120E030E040E85FE30E947A1608
:10053000882344F4FE01E55BFF4F81E090E0918366
:10054000808364C0FE01E35BFF4F60817181828123
:10055000938120E03FEF4FE757E40E941A161816E8
:100560000CF043C0FE01EF5AFF4F60817181828120
:10057000938120E030E040E251E40E947414DC01F9
:10058000CB018E01055B1F4FBC01CD010E949E1265
:10059000DC01CB01F801918380831FC0FE01E75B82
:1005A000FF4F80E791E091838083FE01E75BFF4F7F
:1005B000808191810197F1F7FE01E75BFF4F918305
:1005C0008083DE01A55BBF4FFE01E55BFF4F8081AD
:1005D0009181019711969C938E93FE01E55BFF4FED
:1005E000808191810097D1F627C08E01055B1F4F56
:1005F000FE01E35BFF4F60817181828193810E94E4
:100600009E12DC01CB01F80191838083DE01A95B9E
:10061000BF4FFE01E55BFF4F808191818D939C93DD
:10062000FE01E95BFF4F808191810197F1F7FE01A7
:10063000E95BFF4F91838083A8E2B0E0E8E2F0E05D
:1006400080818E7F8C93A8E2B0E0E8E2F0E08081C8
:100650008D7F8C93E8E2F0E080E38083A8E2B0E055
:10066000E8E2F0E0808184608C93FE01ED5BFF4F57
:1006700080E090E0A0EAB0E480839183A283B3831A
:100680008E01015C1F4FFE01ED5BFF4F60817181A8
:100690008281938126E636E646E655E40E9474148C
:1006A000DC01CB01F80180839183A283B383FE0137
:1006B000FF96608171818281938120E030E040E883
:1006C0005FE30E947A1688232CF481E090E09EAFCD
:1006D0008DAF46C0FE01FF9660817181828193815A
:1006E00020E03FEF4FE757E40E941A16181664F512
:1006F000FE01ED5BFF4F608171818281938120E07B
:1007000030E040E251E40E947414DC01CB01BC01F2
:10071000CD010E949E12DC01CB019EAF8DAF0FC0B8
:1007200080E791E09CAF8BAF8BAD9CAD0197F1F76B
:100730009CAF8BAF8DAD9EAD01979EAF8DAF8DAD54
:100740009EAD009769F716C0FE01FF96608171812A
:10075000828193810E949E12DC01CB019EAF8DAFFE
:100760008DAD9EAD9AAF89AF89AD9AAD0197F1F786
:100770009AAF89AFA8E2B0E0E8E2F0E080818B7F39
:100780008C9380E090E0A0E8BFE38DAB9EABAFAB75
:10079000B8AF6DA97EA98FA998AD26E636E646E6E4
:1007A00055E40E947414DC01CB0189AB9AABABAB6E
:1007B000BCAB69A97AA98BA99CA920E030E040E8EC
:1007C0005FE30E947A1688232CF481E090E098ABD6
:1007D0008FA73FC069A97AA98BA99CA920E03FEF08
:1007E0004FE757E40E941A1618164CF56DA97EA91A
:1007F0008FA998AD20E030E040E251E40E947414EB
:10080000DC01CB01BC01CD010E949E12DC01CB01B9
:1008100098AB8FA70FC080E791E09EA78DA78DA50D
:100820009EA50197F1F79EA78DA78FA598A901977F
:1008300098AB8FA78FA598A9009769F714C069A9ED
:100840007AA98BA99CA90E949E12DC01CB0198ABCE
:100850008FA78FA598A99CA78BA78BA59CA501976F
:10086000F1F79CA78BA7A8E2B0E0E8E2F0E0808176
:100870008E7F8C93A8E2B0E0E8E2F0E080818D7F8B
:100880008C93E8E2F0E080E38083A8E2B0E0E8E265
:10089000F0E0808184608C9380E090E0A0EAB0E496
:1008A0008FA398A7A9A7BAA76FA178A589A59AA58C
:1008B00026E636E646E655E40E947414DC01CB01D8
:1008C0008BA39CA3ADA3BEA36BA17CA18DA19EA174
:1008D00020E030E040E85FE30E947A1688232CF4A1
:1008E00081E090E09AA389A33FC06BA17CA18DA178
:1008F0009EA120E03FEF4FE757E40E941A1618161A
:100900004CF56FA178A589A59AA520E030E040E2DA
:1009100051E40E947414DC01CB01BC01CD010E94A2
:100920009E12DC01CB019AA389A30FC080E791E05E
:1009300098A38F8F8F8D98A10197F1F798A38F8F30
:1009400089A19AA101979AA389A389A19AA1009745
:1009500069F714C06BA17CA18DA19EA10E949E127B
:10096000DC01CB019AA389A389A19AA19E8F8D8FC7
:100970008D8D9E8D0197F1F79E8F8D8FA8E2B0E04F
:10098000E8E2F0E080818B7F8C9380E090E0A0E84B
:10099000BFE3898F9A8FAB8FBC8F698D7A8D8B8DDA
:1009A0009C8D26E636E646E655E40E947414DC018A
:1009B000CB018D8B9E8BAF8BB88F6D897E898F8994
:1009C000988D20E030E040E85FE30E947A168823AB
:1009D0002CF481E090E09C8B8B8B3FC06D897E89ED
:1009E0008F89988D20E03FEF4FE757E40E941A1659
:1009F00018164CF5698D7A8D8B8D9C8D20E030E03A
:100A000040E251E40E947414DC01CB01BC01CD0131
:100A10000E949E12DC01CB019C8B8B8B0FC080E768
:100A200091E09A8B898B89899A890197F1F79A8B42
:100A3000898B8B899C8901979C8B8B8B8B899C895B
:100A4000009769F714C06D897E898F89988D0E94FF
:100A50009E12DC01CB019C8B8B8B8B899C89988BA4
:100A60008F878F8598890197F1F7988B8F87A8E2F8
:100A7000B0E0E8E2F0E080818E7F8C93A8E2B0E005
:100A8000E8E2F0E080818D7F8C93E8E2F0E080E2A4
:100A90008083A8E2B0E0E8E2F0E0808184608C939B
:100AA00080E090E0A0EAB0E48B879C87AD87BE87AA
:100AB0006B857C858D859E8526E636E646E655E483
:100AC0000E947414DC01CB018F839887A987BA87B1
:100AD0006F81788589859A8520E030E040E85FE382
:100AE0000E947A1688232CF481E090E09E838D8307
:100AF0003FC06F81788589859A8520E03FEF4FE779
:100B000057E40E941A1618164CF56B857C858D8566
:100B10009E8520E030E040E251E40E947414DC0144
:100B2000CB01BC01CD010E949E12DC01CB019E8352
:100B30008D830FC080E791E09C838B838B819C81A8
:100B40000197F1F79C838B838D819E8101979E8312
:100B50008D838D819E81009769F714C06F817885A0
:100B600089859A850E949E12DC01CB019E838D832C
:100B70008D819E819A83898389819A810197F1F77A
:100B80009A838983A8E2B0E0E8E2F0E080818B7F7D
:100B90008C93C059DF4F0FB6F894DEBF0FBECDBFA8
:100BA000CF91DF911F910F910895DF93CF93CDB730
:100BB000DEB72E970FB6F894DEBF0FBECDBF80E034
:100BC00090E0A0E8BFE38B879C87AD87BE876B85ED
:100BD0007C858D859E8526E636E646E655E40E94B0
:100BE0007414DC01CB018F839887A987BA876F8142
:100BF000788589859A8520E030E040E85FE30E94AF
:100C00007A1688232CF481E090E09E838D833FC088
:100C10006F81788589859A8520E03FEF4FE757E41B
:100C20000E941A1618164CF56B857C858D859E855D
:100C300020E030E040E251E40E947414DC01CB017A
:100C4000BC01CD010E949E12DC01CB019E838D83ED
:100C50000FC080E791E09C838B838B819C810197FF
:100C6000F1F79C838B838D819E8101979E838D8379
:100C70008D819E81009769F714C06F817885898581
:100C80009A850E949E12DC01CB019E838D838D810B
:100C90009E819A83898389819A810197F1F79A834A
:100CA000898388E20E94690681E00E94690686E0E5
:100CB0000E9469068EE00E94690680E80E9469062B
:100CC0002E960FB6F894DEBF0FBECDBFCF91DF9149
:100CD0000895DF93CF93CDB7DEB76E970FB6F89434
:100CE000DEBF0FBECDBF8E8F8E8D8D8F8D8D807FA1
:100CF0008D8FA8E2B0E0E8E2F0E080818F708C9305
:100D0000A8E2B0E0E8E2F0E090818D8D892B8C9331
:100D1000A8E2B0E0E8E2F0E080818E7F8C93A8E268
:100D2000B0E0E8E2F0E080818D7F8C93A8E2B0E053
:100D3000E8E2F0E0808184608C9380E090E0A0EABB
:100D4000B0E4898F9A8FAB8FBC8F698D7A8D8B8D34
:100D50009C8D26E636E646E655E40E947414DC01D6
:100D6000CB018D8B9E8BAF8BB88F6D897E898F89E0
:100D7000988D20E030E040E85FE30E947A168823F7
:100D80002CF481E090E09C8B8B8B3FC06D897E8939
:100D90008F89988D20E03FEF4FE757E40E941A16A5
:100DA00018164CF5698D7A8D8B8D9C8D20E030E086
:100DB00040E251E40E947414DC01CB01BC01CD017E
:100DC0000E949E12DC01CB019C8B8B8B0FC080E7B5
:100DD00091E09A8B898B89899A890197F1F79A8B8F
:100DE000898B8B899C8901979C8B8B8B8B899C89A8
:100DF000009769F714C06D897E898F89988D0E944C
:100E00009E12DC01CB019C8B8B8B8B899C89988BF0
:100E10008F878F8598890197F1F7988B8F87A8E244
:100E2000B0E0E8E2F0E080818B7F8C938E8D8F7054
:100E30008E8F8E8D8295807F8E8FA8E2B0E0E8E263
:100E4000F0E080818F708C93A8E2B0E0E8E2F0E0FF
:100E500090818E8D892B8C93A8E2B0E0E8E2F0E0DF
:100E600080818E7F8C93A8E2B0E0E8E2F0E08081A0
:100E70008D7F8C93A8E2B0E0E8E2F0E080818460AE
:100E80008C9380E090E0A0EAB0E48B879C87AD87EC
:100E9000BE876B857C858D859E8526E636E646E693
:100EA00055E40E947414DC01CB018F839887A987D5
:100EB000BA876F81788589859A8520E030E040E89F
:100EC0005FE30E947A1688232CF481E090E09E83F1
:100ED0008D833FC06F81788589859A8520E03FEFBB
:100EE0004FE757E40E941A1618164CF56B857C855F
:100EF0008D859E8520E030E040E251E40E9474142C
:100F0000DC01CB01BC01CD010E949E12DC01CB01B2
:100F10009E838D830FC080E791E09C838B838B81C0
:100F20009C810197F1F79C838B838D819E81019732
:100F30009E838D838D819E81009769F714C06F8198
:100F4000788589859A850E949E12DC01CB019E835B
:100F50008D838D819E819A83898389819A8101976E
:100F6000F1F79A838983A8E2B0E0E8E2F0E08081BB
:100F70008B7F8C936E960FB6F894DEBF0FBECDBFFD
:100F8000CF91DF910895DF93CF93CDB7DEB76E9702
:100F90000FB6F894DEBF0FBECDBF8E8F8E8D8D8FB6
:100FA0008D8D807F8D8FA8E2B0E0E8E2F0E0808157
:100FB0008F708C93A8E2B0E0E8E2F0E08081982F97
:100FC0008D8D892B8C93A8E2B0E0E8E2F0E080817F
:100FD00081608C93A8E2B0E0E8E2F0E080818D7F50
:100FE0008C93A8E2B0E0E8E2F0E0808184608C932A
:100FF00080E090E0A0EAB0E4898F9A8FAB8FBC8F3D
:10100000698D7A8D8B8D9C8D26E636E646E655E415
:101010000E947414DC01CB018D8B9E8BAF8BB88F3B
:101020006D897E898F89988D20E030E040E85FE30C
:101030000E947A1688232CF481E090E09C8B8B8BA5
:101040003FC06D897E898F89988D20E03FEF4FE703
:1010500057E40E941A1618164CF5698D7A8D8B8DFF
:101060009C8D20E030E040E251E40E947414DC01E9
:10107000CB01BC01CD010E949E12DC01CB019C8BF7
:101080008B8B0FC080E791E09A8B898B89899A8935
:101090000197F1F79A8B898B8B899C8901979C8B9F
:1010A0008B8B8B899C89009769F714C06D897E8929
:1010B0008F89988D0E949E12DC01CB019C8B8B8BBB
:1010C0008B899C89988B8F878F8598890197F1F7F9
:1010D000988B8F87A8E2B0E0E8E2F0E080818B7F18
:1010E0008C938E8D8F708E8F8E8D992787FD909526
:1010F00082959295907F9827807F98278E8FA8E27F
:10110000B0E0E8E2F0E080818F708C93A8E2B0E07C
:10111000E8E2F0E08081982F8E8D892B8C93A8E2F5
:10112000B0E0E8E2F0E0808181608C93A8E2B0E07A
:10113000E8E2F0E080818D7F8C93A8E2B0E0E8E205
:10114000F0E0808184608C9380E090E0A0EAB0E4DD
:101150008B879C87AD87BE876B857C858D859E85BB
:1011600026E636E646E655E40E947414DC01CB011F
:101170008F839887A987BA876F81788589859A85B3
:1011800020E030E040E85FE30E947A1688232CF4E8
:1011900081E090E09E838D833FC06F817885898553
:1011A0009A8520E03FEF4FE757E40E941A16181681
:1011B0004CF56B857C858D859E8520E030E040E296
:1011C00051E40E947414DC01CB01BC01CD010E94EA
:1011D0009E12DC01CB019E838D830FC080E791E0DE
:1011E0009C838B838B819C810197F1F79C838B83FC
:1011F0008D819E8101979E838D838D819E81009735
:1012000069F714C06F81788589859A850E949E123E
:10121000DC01CB019E838D838D819E819A8389839E
:1012200089819A810197F1F79A838983A8E2B0E0D6
:10123000E8E2F0E080818B7F8C936E960FB6F89495
:10124000DEBF0FBECDBFCF91DF910895DF93CF9367
:10125000CDB7DEB780E80E946906CF91DF9108958F
:10126000DF93CF930F920F92CDB7DEB79A83898326
:101270000AC0E981FA8180810E94C30789819A812D
:1012800001969A838983E981FA818081882389F78D
:101290000F900F90CF91DF910895DF93CF9300D0FF
:1012A0000F92CDB7DEB789836A838981282F3327D0
:1012B00027FD30953C832B838B819C818230910567
:1012C000D9F02B813C812330310534F48B819C8112
:1012D0008130910561F01EC02B813C8123303105A6
:1012E00081F08B819C818430910581F013C08A81CB
:1012F00081580E9469060EC08A8181540E94690645
:1013000009C08A818D560E94690604C08A818D5267
:101310000E9469060F900F900F900F90CF91DF9170
:101320000895DF93CF93CDB7DEB727970FB6F89424
:10133000DEBF0FBECDBF8A836B835D834C833F834B
:101340002E8319828A81882319F08B81882319F4CE
:101350000E94260904C08A816B810E944D098E81FA
:101360009F818530910519F089818130A9F48C81A4
:101370009D8120E137E2B9010E94CA19CB01C096D4
:10138000909323038093220380912203909123035F
:101390000E94C30781E089838E819F8184309105FB
:1013A00019F08981813011F58C819D8128EE33E01F
:1013B000B9010E94CA19CB0190932A038093290393
:1013C0008091290390912A032AE030E0B9010E941C
:1013D000CA19C09690933B0380933A0380913A03D5
:1013E00090913B030E94C30781E089838E819F8196
:1013F0008330910519F08981813011F58C819D81AF
:1014000024E630E0B9010E94CA19CB0190932A0367
:10141000809329038091290390912A032AE030E0E8
:10142000B9010E94CA19C096909336038093350380
:1014300080913503909136030E94C30781E0898330
:101440008E819F818230910519F08981813011F55B
:101450008C819D812AE030E0B9010E94CA19CB013C
:1014600090932A03809329038091290390912A0362
:101470002AE030E0B9010E94CA19C0969093340363
:101480008093330380913303909134030E94C30708
:1014900081E089838E819F818130910519F0898156
:1014A000813091F48C819D812AE030E0B9010E9465
:1014B000CA19C096909339038093380380913803FA
:1014C000909139030E94C3078E819F8186309105D8
:1014D0001CF085E40E94C30727960FB6F894DEBF80
:1014E0000FBECDBFCF91DF910895DF93CF93CDB7DE
:1014F000DEB7E1E2F1E01082E5E2F1E08FEF808318
:10150000E4E2F1E081E08083E9E2F1E01082E8E2E8
:10151000F1E08FEF8083EBE2F1E01082EAE2F1E0AC
:101520008FEF8083EDE2F1E01082ECE2F1E08FEFEB
:101530008083E0E2F1E089EA8083E1E2F1E08BE0A0
:101540008083CF91DF910895DF93CF93CDB7DEB73E
:10155000A4E2B0E0E4E2F0E0808180628C93A5E256
:10156000B0E0E5E2F0E0808180628C93CF91DF9182
:101570000895DF93CF93CDB7DEB7A4E2B0E0E4E205
:10158000F0E0808180648C93A5E2B0E0E5E2F0E0D9
:10159000808180648C93CF91DF910895DF93CF9306
:1015A000CDB7DEB7A4E2B0E0E4E2F0E0808180688D
:1015B0008C93A5E2B0E0E5E2F0E0808180688C9356
:1015C000CF91DF910895DF93CF93CDB7DEB7E1E8F8
:1015D000F0E01082E5E8F0E08CEF8083E4E8F0E0F2
:1015E00081E08083E9E8F0E083E08083E8E8F0E0F0
:1015F0008FEF8083EBE8F0E083E08083EAE8F0E0BF
:101600008FEF8083EDE8F0E083E08083ECE8F0E0AA
:101610008FEF8083E7E8F0E083E08083E6E8F0E0A6
:101620008FEF8083E0E8F0E08BEA8083E2E8F0E08F
:101630001082E1E8F0E08CE08083CF91DF910895A3
:101640000F931F93DF93CF9300D00F920F92CDB7DC
:10165000DEB78D8380E090E0A0E0B0E089839A83DC
:10166000AB83BC838D81882F90E0A0E0B0E0BC010B
:10167000CD010E945C17DC01CB01BC01CD012BE741
:1016800034E14EEE5FE30E946E15DC01CB01BC013C
:10169000CD0120E030E04CE052E40E944714DC0130
:1016A000CB0189839A83AB83BC83E9E8F0E01082A5
:1016B00008E810E069817A818B819C810E949E12EA
:1016C000DC01CB01F80180830F900F900F900F90F9
:1016D0000F90CF91DF911F910F9108950F931F935A
:1016E000DF93CF9300D00F920F92CDB7DEB78D83EB
:1016F00080E090E0A0E0B0E089839A83AB83BC8374
:101700008D81882F90E0A0E0B0E0BC01CD010E9467
:101710005C17DC01CB01BC01CD012BE734E14EEEBF
:101720005FE30E946E15DC01CB01BC01CD0120E01E
:1017300030E04CE052E40E944714DC01CB01898385
:101740009A83AB83BC83EBE8F0E010820AE810E0F8
:1017500069817A818B819C810E949E12DC01CB0180
:10176000F80180830F900F900F900F900F90CF9102
:10177000DF911F910F9108950F931F93DF93CF93E4
:1017800000D00F920F92CDB7DEB78D8380E090E04E
:10179000A0E0B0E089839A83AB83BC838D81882FDE
:1017A00090E0A0E0B0E0BC01CD010E945C17DC013C
:1017B000CB01BC01CD012BE734E14EEE5FE30E948B
:1017C0006E15DC01CB01BC01CD0120E030E04CE026
:1017D00052E40E944714DC01CB0189839A83AB83D6
:1017E000BC83EDE8F0E010820CE810E069817A81BA
:1017F0008B819C810E949E12DC01CB01F8018083C9
:101800000F900F900F900F900F90CF91DF911F913D
:101810000F910895DF93CF93CDB7DEB7E9E8F0E0FD
:1018200083E08083E8E8F0E08FEF8083CF91DF9161
:101830000895DF93CF93CDB7DEB7EBE8F0E083E018
:101840008083EAE8F0E08FEF8083CF91DF91089505
:10185000DF93CF93CDB7DEB7EDE8F0E083E0808390
:10186000ECE8F0E08FEF8083CF91DF910895DF9374
:10187000CF93CDB7DEB7A1E2B0E0E1E2F0E0808146
:101880008F608C93A2E2B0E0E2E2F0E08081807FA2
:101890008C93AAE0B1E0EAE0F1E0808188618C936A
:1018A000ABE0B1E0EBE0F1E0808188618C93CF9117
:1018B000DF910895DF93CF930F920F92CDB7DEB7EC
:1018C0008A8319828A818F708A83E2E2F0E08081C4
:1018D00089838981807F898399818A81892B898302
:1018E000E2E2F0E0898180830F900F90CF91DF9149
:1018F0000895DF93CF930F920F92CDB7DEB7898310
:101900006A83E8E2F1E089818083EAE2F1E08A819A
:1019100080830F900F90CF91DF910895DF93CF9345
:10192000CDB7DEB786E00E945A0CCF91DF910895C3
:10193000DF93CF93CDB7DEB789E00E945A0CCF91E9
:10194000DF910895DF93CF93CDB7DEB785E00E9496
:101950005A0CCF91DF910895DF93CF93CDB7DEB7C7
:101960008AE00E945A0CCF91DF910895DF93CF93C4
:10197000CDB7DEB784E00E945A0CCF91DF91089575
:10198000DF93CF93CDB7DEB782E00E945A0CCF91A0
:10199000DF910895DF93CF93CDB7DEB781E00E944A
:1019A0005A0CCF91DF910895DF93CF93CDB7DEB777
:1019B00088E00E945A0CCF91DF910895DF93CF9376
:1019C000CDB7DEB780E00E945A0CCF91DF91089529
:1019D000DF93CF93CDB7DEB7E4E0F1E08FEF808304
:1019E000E5E0F1E01082CF91DF910895DF93CF938E
:1019F000CDB7DEB7A7E2B0E0E7E2F0E08081876F25
:101A00008C93A8E2B0E0E8E2F0E0808180788C93EB
:101A1000CF91DF910895DF93CF93CDB7DEB7E0E3A9
:101A2000F0E01082E1E3F0E01082E7E0F1E0108204
:101A3000E8E0F1E01082CF91DF910895DF93CF933A
:101A4000CDB7DEB7A1E0B1E0E1E0F1E080818C60EC
:101A50008C93A2E0B1E0E2E0F1E08081837F8C939F
:101A6000A3E3B0E0E3E3F0E0808184608C93A4E33F
:101A7000B0E0E4E3F0E080818B7F8C93CF91DF9145
:101A80000895DF93CF93CDB7DEB7A7E2B0E0E7E2EA
:101A9000F0E0808188608C93A8E2B0E0E8E2F0E0BA
:101AA0008081877F8C93CF91DF910895DF93CF93CF
:101AB0000F92CDB7DEB71982E6E2F0E0808189832C
:101AC000898188608983E8E2F0E0898180830F90D2
:101AD000CF91DF910895DF93CF930F92CDB7DEB70B
:101AE0001982E6E2F0E0808189838981877F89839A
:101AF000E8E2F0E0898180830F90CF91DF91089533
:101B0000DF93CF93CDB7DEB760970FB6F894DEBF03
:101B10000FBECDBF988B8F870E94560D8F859889F9
:101B2000AA2797FDA095BA2FBC01CD010E94AA1645
:101B3000DC01CB018B879C87AD87BE876B857C855D
:101B40008D859E8526E636E646E655E40E947414A9
:101B5000DC01CB018F839887A987BA876F8178854D
:101B600089859A8520E030E040E85FE30E947A169C
:101B700088232CF481E090E09E838D833FC06F81A9
:101B8000788589859A8520E03FEF4FE757E40E94EA
:101B90001A1618164CF56B857C858D859E8520E080
:101BA00030E040E251E40E947414DC01CB01BC013E
:101BB000CD010E949E12DC01CB019E838D830FC05C
:101BC00080E791E09C838B838B819C810197F1F767
:101BD0009C838B838D819E8101979E838D838D81D4
:101BE0009E81009769F714C06F81788589859A85F1
:101BF0000E949E12DC01CB019E838D838D819E818C
:101C00009A83898389819A810197F1F79A838983DD
:101C10000E946B0D60960FB6F894DEBF0FBECDBF6D
:101C2000CF91DF910895DF93CF93CDB7DEB7E1EA8F
:101C3000F0E01082E5EAF0E08FE18083E4EAF0E092
:101C400081E08083E9EAF0E01082E8EAF0E01082C7
:101C5000EBEAF0E01082EAEAF0E01082EDEAF0E070
:101C60001082ECEAF0E01082E7EAF0E01082E6EAA7
:101C7000F0E01082E0EAF0E01082E2EAF0E01082A8
:101C8000E1EAF0E084E08083CF91DF910895DF9373
:101C9000CF93CDB7DEB7EAE7F0E01082EBE7F0E0F4
:101CA0001082ECE7F0E080E28083E0E5F0E080E89D
:101CB0008083EAE7F0E086E88083CF91DF910895A2
:101CC000DF93CF930F920F92CDB7DEB78A838A81CD
:101CD000883020F0EBE7F0E088E080838A8187702D
:101CE0008A83ECE7F0E08A8180628083AAE7B0E033
:101CF000EAE7F0E0808180648C93EAE7F0E080819D
:101D0000882F90E0807190700097B9F3E9E7F0E0D8
:101D100080818983AAE7B0E0EAE7F0E08081806112
:101D20008C93EBE7F0E0108289810F900F90CF91B8
:101D3000DF910895DF93CF9300D0CDB7DEB78983CD
:101D40006A834B838B810E94600E80932C03809169
:101D50002C03282F30E089816A81A90123E030E03B
:101D60000E9491090F900F900F90CF91DF910895ED
:101D7000DF93CF93CDB7DEB727970FB6F894DEBFCA
:101D80000FBECDBF8F838F81882F90E0A0E0B0E0A1
:101D9000BC01CD010E945C17DC01CB01BC01CD016F
:101DA0002FEE39EC43E95FE30E94151ADC01CB0109
:101DB0009C01AD0160E070E080E89FE30E946E1539
:101DC000DC01CB01BC01CD012AE939EF4EE255E43B
:101DD0000E947414DC01CB01BC01CD0120E030E095
:101DE00040E251E40E947414DC01CB01BC01CD013E
:101DF0000E940817DC01CB01AA2797FDA095BA2FF6
:101E0000BC01CD010E94AA16DC01CB018B839C830F
:101E1000AD83BE836B817C818D819E810E9408177A
:101E2000DC01CB019A83898389819A8123E0813205
:101E3000920720F080E293E09A83898389819A81D6
:101E400027960FB6F894DEBF0FBECDBFCF91DF91BE
:101E50000895DF93CF93CDB7DEB7A4E3B0E0E4E31A
:101E6000F0E080818B7F8C93CF91DF910895DF9399
:101E7000CF93CDB7DEB7A4E3B0E0E4E3F0E0808138
:101E800084608C93CF91DF910895DF93CF93CDB78A
:101E9000DEB7A2E0B1E0E2E0F1E080818B7F8C93DD
:101EA000CF91DF910895DF93CF93CDB7DEB7A2E056
:101EB000B1E0E2E0F1E0808184608C93CF91DF912A
:101EC0000895DF93CF93CDB7DEB7A2E0B1E0E2E0B3
:101ED000F1E08081877F8C93CF91DF910895DF932C
:101EE000CF93CDB7DEB7A2E0B1E0E2E0F1E08081D0
:101EF00088608C93CF91DF910895DF93CF93CDB716
:101F0000DEB7A2E0B1E0E2E0F1E08081837F8C9374
:101F1000A4E3B0E0E4E3F0E080818B7F8C93CF9189
:101F2000DF910895DF93CF93CDB7DEB7A2E0B1E0A4
:101F3000E2E0F1E080818C608C93A4E3B0E0E4E324
:101F4000F0E0808184608C93CF91DF910895DF93DE
:101F5000CF93CDB7DEB7ADE2B0E0EDE2F0E0808147
:101F60008F7E8C93AEE2B0E0EEE2F0E080818061A3
:101F70008C93CF91DF910895DF93CF93CDB7DEB7E8
:101F8000ADE2B0E0EDE2F0E080818F7D8C93AEE2D7
:101F9000B0E0EEE2F0E0808180628C93CF91DF913F
:101FA0000895DF93CF93CDB7DEB7F894AAE6B0E0FB
:101FB000EAE6F0E0808182608C93ADE3B0E0EDE38F
:101FC000F0E0808180618C937894CF91DF910895C7
:101FD000DF93CF93CDB7DEB7F894AAE6B0E0EAE698
:101FE000F0E0808188608C93ADE3B0E0EDE3F0E059
:101FF000808180628C937894CF91DF9108951F92B5
:102000000F920FB60F9211248F939F93AF93BF93AC
:10201000DF93CF93CDB7DEB780911003909111037A
:10202000A0911203B09113030196A11DB11D8093DD
:10203000100390931103A0931203B0931303CF9155
:10204000DF91BF91AF919F918F910F900FBE0F9035
:102050001F9018951F920F920FB60F9211248F9315
:102060009F93AF93BF93DF93CF93CDB7DEB78091AC
:102070000C0390910D03A0910E03B0910F030196F4
:10208000A11DB11D80930C0390930D03A0930E032B
:10209000B0930F03CF91DF91BF91AF919F918F913B
:1020A0000F900FBE0F901F901895DF93CF93CDB771
:1020B000DEB72C970FB6F894DEBF0FBECDBF9A8760
:1020C000898780E090E0A0E0B0E08D839E83AF83BD
:1020D000B88719821A821B821C8289859A85CC0155
:1020E000A0E0B0E0BC01CD010E945C17DC01CB0197
:1020F000BC01CD0128E431EE42E850E40E946E15A7
:10210000DC01CB018D839E83AF83B8876D817E8197
:102110008F8198850E949E12DC01CB01CC01A0E04A
:10212000B0E089839A83AB83BC8310921003109232
:102130001103109212031092130310920C031092C9
:102140000D0310920E0310920F0320911003309193
:10215000110340911203509113031C8689819A81C7
:10216000AB81BC81281739074A075B0710F081E073
:102170008C8720910C0330910D0340910E035091F8
:102180000F031B8689819A81AB81BC81281739078F
:102190004A075B0710F091E09B878C859B85892B14
:1021A000882399F20E94DE0C2C960FB6F894DEBFBD
:1021B0000FBECDBFCF91DF910895DF93CF93CDB701
:1021C000DEB72A970FB6F894DEBF0FBECDBF9A8751
:1021D000898780E090E0A0E0B0E08D839E83AF83AC
:1021E000B88719821A821B821C8289859A85CC0144
:1021F000A0E0B0E0BC01CD010E945C17DC01CB0186
:10220000BC01CD0125EE30ED4AEA50E40E946E1586
:10221000DC01CB018D839E83AF83B8876D817E8186
:102220008F8198850E949E12DC01CB0189839A835D
:10223000AB83BC831092100310921103109212030F
:102240001092130320911003309111034091120357
:102250005091130389819A81AB81BC8182179307C6
:10226000A407B50778F70E94DE0C2A960FB6F894FB
:10227000DEBF0FBECDBFCF91DF910895DF93CF9327
:102280000F920F92CDB7DEB79A8389830E948E0C8E
:1022900089819A810E94DD100F900F90CF91DF917C
:1022A0000895DF93CF930F920F92CDB7DEB79A8345
:1022B00089830E94980C89819A810E94DD100F9079
:1022C0000F90CF91DF910895DF93CF930F920F92EC
:1022D000CDB7DEB79A8389830E94A20C89819A8147
:1022E0000E9455100F900F90CF91DF910895DF93CA
:1022F000CF930F920F92CDB7DEB79A8389830E9456
:10230000AC0C89819A810E9455100F900F90CF914B
:10231000DF910895DF93CF930F920F92CDB7DEB781
:102320009A8389830E94B60C89819A81880F991FAC
:102330009A83898389819A810E9455100F900F900A
:10234000CF91DF910895DF93CF930F920F92CDB786
:10235000DEB79A8389830E94C00C89819A81880F95
:10236000991F9A83898389819A810E9455100F90C1
:102370000F90CF91DF910895DF93CF930F920F923B
:10238000CDB7DEB79A8389830E94CA0C89819A816E
:10239000880F991F9A83898389819A810E94551099
:1023A0000F900F90CF91DF910895DF93CF930F920D
:1023B0000F92CDB7DEB79A8389830E94D40C8981AE
:1023C0009A81880F991F9A83898389819A810E94B3
:1023D00055100F900F90CF91DF910895DF93CF9319
:1023E000CDB7DEB781E00E94600E80931803809124
:1023F0001803CF91DF910895DF93CF93CDB7DEB768
:1024000083E00E94600E80931A0380911A03CF919B
:10241000DF910895DF93CF93CDB7DEB782E00E94BE
:10242000600E8093190380911903CF91DF91089575
:10243000DF93CF93CDB7DEB787E00E94600E809325
:10244000150380911503CF91DF910895DF93CF930A
:10245000CDB7DEB787E00E94600E809316038091AF
:102460001603CF91DF910895DF93CF93CDB7DEB7F9
:1024700087E00E94600E8093170380911703CF912D
:10248000DF910895DF93CF93CDB7DEB70E94F60CAE
:102490000E940B0D0E941E0D0E94370C0E94A40A80
:1024A0000E94B90A0E94CE0A0E94410D0E94370C78
:1024B0000E94A70F0E94BC0FCF91DF910895DF9378
:1024C000CF93CDB7DEB7E3E3F0E08FEF8083E4E3B3
:1024D000F0E08FEF8083CF91DF910895DF93CF936A
:1024E000CDB7DEB7F8940E9442120E94D6000E9437
:1024F000D5050E94470E0E94E30A0E94130E0E9417
:10250000750A0E94D10F0E94E80F0E945F12789412
:10251000CF91DF910895DF93CF93CDB7DEB70E94BF
:102520006E128CE390E00E943E1188EB9BE00E94CB
:10253000800D8CE390E00E945111F3CFEF92FF9257
:102540000F931F937B018C0120E030E040E05FE4BB
:102550000E944A1688238CF0C801B70120E030E0C1
:1025600040E05FE40E9416140E9408179B01AC0132
:10257000205030404040504806C0C801B7010E947A
:1025800008179B01AC01B901CA011F910F91FF907F
:10259000EF900895A0E0B0E0E0EDF2E10C94DE19D8
:1025A000DC012B01FA019C91923008F439C1EB0156
:1025B0008881823008F433C1943069F4843009F0A2
:1025C0002FC111969C9111978981981709F428C100
:1025D000A4E0B2E025C1843009F421C18230A9F41D
:1025E000923009F01DC19A01AD0188E0EA0109901D
:1025F000AE01E90109929E018150C1F7E201898192
:1026000011969C918923818308C1923009F407C1F6
:1026100012962D903C901397EB018A819B81149622
:10262000AD90BD90CD90DC901797EC80FD800E8131
:102630001F819101281B390BB90137FF04C06627A0
:102640007727621B730B603271050CF061C01216A4
:1026500013066CF537014801062E04C09694879442
:10266000779467940A94D2F721E030E040E050E09C
:1026700004C0220F331F441F551F6A95D2F7215003
:102680003040404050402E213F214023512321150E
:1026900031054105510521F021E030E040E050E0F6
:1026A00079018A01E628F728082919293CC0232B3B
:1026B000D1F1260E371E35014601062E04C0969430
:1026C0008794779467940A94D2F721E030E040E051
:1026D00050E004C0220F331F441F551F6A95D2F7E4
:1026E00021503040404050402A213B214C215D2167
:1026F000211531054105510521F021E030E040E090
:1027000050E059016A01A628B728C828D9280BC06B
:10271000821593052CF01C01AA24BB24650103C07B
:10272000EE24FF24870111969C91D20111968C9181
:10273000981709F445C0992339F0A80197012A197F
:102740003B094C095D0906C0A60195012E193F09F8
:10275000400B510B57FD08C0118233822282248323
:102760003583468357831DC081E081833382228273
:1027700088279927DC01821B930BA40BB50B84835C
:102780009583A683B7830DC0220F331F441F551FA7
:102790002483358346835783828193810197938372
:1027A00082832481358146815781DA01C9010197ED
:1027B000A109B1098F5F9F4FAF4FBF4328F30BC0F3
:1027C000918333822282EA0CFB1C0C1D1D1DE482C6
:1027D000F5820683178383E08083248135814681D7
:1027E000578157FF1AC0C901AA2797FDA095BA2F94
:1027F00081709070A070B070569547953795279569
:10280000822B932BA42BB52B84839583A683B7832C
:1028100082819381019693838283DF0101C0D2017B
:10282000CD01CDB7DEB7E2E10C94FA19A0E2B0E039
:10283000ECE1F4E10C94EA1969837A838B839C833D
:102840002D833E834F835887E9E0EE2EF12CEC0E6A
:10285000FD1ECE010196B7010E94F9188E010F5E90
:102860001F4FCE010596B8010E94F9188A8991E0A0
:1028700089278A8BC701B801AE01475E5F4F0E946E
:10288000CA120E942418A096E6E00C94061AA0E250
:10289000B0E0EDE4F4E10C94EA1969837A838B8368
:1028A0009C832D833E834F835887F9E0EF2EF12CD4
:1028B000EC0EFD1ECE010196B7010E94F9188E01A3
:1028C0000F5E1F4FCE010596B8010E94F918C7018F
:1028D000B801AE01475E5F4F0E94CA120E942418E1
:1028E000A096E6E00C94061AA0E2B0E0EAE7F4E174
:1028F0000C94DE1969837A838B839C832D833E83BA
:102900004F835887CE010196BE01675F7F4F0E94BB
:10291000F918CE010596BE016F5E7F4F0E94F9182F
:102920009985923088F089898230C8F0943019F402
:10293000823051F404C0843029F4923081F484E070
:1029400092E0C6C0923049F420E09A858A899813B3
:1029500021E02A87CE010996BBC0823049F420E0ED
:102960009A858A89981321E02A8BCE014196B0C0BE
:102970002D843E844F8458886D887E888F88988CFB
:10298000EE24FF248701AA24BB24650140E050E027
:1029900060E070E0E0E0F0E0C10181709070892BB0
:1029A000E9F0E60CF71C081D191D9A01AB012A0D70
:1029B0003B1D4C1D5D1D80E090E0A0E0B0E0E61402
:1029C000F7040805190520F481E090E0A0E0B0E0EC
:1029D000BA01A901480F591F6A1F7B1FAA0CBB1C13
:1029E000CC1CDD1C97FE08C081E090E0A0E0B0E0C8
:1029F000A82AB92ACA2ADB2A3196E032F10549F021
:102A0000660C771C881C991C56944794379427941D
:102A1000C3CFFA85EA892B893C898B859C85280F51
:102A2000391F2E5F3F4F17C0CA0181709070892BEC
:102A300061F016950795F794E79480E090E0A0E0A8
:102A4000B0E8E82AF92A0A2B1B2B7695679557954B
:102A500047952F5F3F4F77FDE7CF0CC0440F551FC1
:102A6000661F771F17FD4160EE0CFF1C001F111F32
:102A700021503040403090E0590790E0690790E4E1
:102A8000790760F32B8F3C8FDB01CA018F77907041
:102A9000A070B07080349105A105B10561F447FDC7
:102AA0000AC0E114F1040105110529F0405C5F4FF3
:102AB0006F4F7F4F40781A8EFE1711F081E08A8F9A
:102AC0004D8F5E8F6F8F78A383E0898FCE014996FB
:102AD0000E942418A096E2E10C94FA19A8E1B0E053
:102AE000E4E7F5E10C94E61969837A838B839C8390
:102AF0002D833E834F835887B9E0EB2EF12CEC0EEB
:102B0000FD1ECE010196B7010E94F9188E010F5EDD
:102B10001F4FCE010596B8010E94F9182985223071
:102B200008F47EC03989323010F4B8017CC08A853F
:102B30009A8989278A87243011F0223031F42317AB
:102B400009F06EC064E072E06EC0343039F41D8666
:102B50001E861F86188A1C861B8604C0323021F40C
:102B600084E08987B7015FC02B853C858B899C8970
:102B7000281B390B3C872B87ED84FE840F85188931
:102B8000AD88BE88CF88D88CEA14FB040C051D05DF
:102B900040F4EE0CFF1C001F111F215030403C87F9
:102BA0002B8720E030E040E050E080E090E0A0E0C3
:102BB000B0E460E070E0EA14FB040C051D0540F091
:102BC000282B392B4A2B5B2BEA18FB080C091D0913
:102BD000B695A79597958795EE0CFF1C001F111FC2
:102BE0006F5F7F4F6F31710531F7DA01C9018F7760
:102BF0009070A070B07080349105A105B10561F4AA
:102C000027FD0AC0E114F1040105110529F0205C3B
:102C10003F4F4F4F5F4F20782D873E874F87588B10
:102C2000BE01675F7F4FCB010E9424186896EAE0DF
:102C30000C94021AA8E1B0E0E0E2F6E10C94EA1983
:102C400069837A838B839C832D833E834F8358874C
:102C500089E0E82EF12CEC0EFD1ECE010196B701A5
:102C60000E94F9188E010F5E1F4FCE010596B80124
:102C70000E94F9188985823040F08989823028F0D5
:102C8000C701B8010E94711901C08FEF6896E6E094
:102C90000C94061AA8E1B0E0E0E5F6E10C94EA191C
:102CA00069837A838B839C832D833E834F835887EC
:102CB00089E0E82EF12CEC0EFD1ECE010196B70145
:102CC0000E94F9188E010F5E1F4FCE010596B801C4
:102CD0000E94F9188985823040F08989823028F075
:102CE000C701B8010E94711901C08FEF6896E6E034
:102CF0000C94061AA8E1B0E0E0E8F6E10C94EA19B9
:102D000069837A838B839C832D833E834F8358878B
:102D100089E0E82EF12CEC0EFD1ECE010196B701E4
:102D20000E94F9188E010F5E1F4FCE010596B80163
:102D30000E94F9188985823040F08989823028F014
:102D4000C701B8010E94711901C081E06896E6E0F0
:102D50000C94061AA8E0B0E0E0EBF6E10C94E71959
:102D60009B01AC0183E08983DA01C9018827B7FDA3
:102D700083959927AA27BB27B82E21153105410530
:102D8000510519F482E089833AC08823A9F02030E4
:102D900080E0380780E0480780E8580729F460E0C1
:102DA00070E080E09FEC30C0EE24FF248701E21A3F
:102DB000F30A040B150B02C079018A018EE1C82EBB
:102DC000D12CDC82CB82ED82FE820F831887C80172
:102DD000B7010E94D51701971816190684F4082E1A
:102DE00004C0EE0CFF1C001F111F0A94D2F7ED82E5
:102DF000FE820F831887C81AD90ADC82CB82BA8276
:102E0000CE0101960E9424182896E9E00C94031A3A
:102E1000ACE0B0E0EEE0F7E10C94EE1969837A8360
:102E20008B839C83CE010196BE016B5F7F4F0E9416
:102E3000F9188D81823061F1823050F1843021F4B3
:102E40008E81882351F12EC02F81388537FD20C017
:102E50006E812F3131051CF06623F9F023C08EE11D
:102E600090E0821B930B29853A854B855C8504C0D5
:102E700056954795379527958A95D2F76623B1F0F1
:102E800050954095309521953F4F4F4F5F4F0EC065
:102E900020E030E040E050E009C02FEF3FEF4FEF7F
:102EA0005FE704C020E030E040E050E8B901CA012B
:102EB0002C96E2E00C940A1AA8E0B0E0E2E6F7E112
:102EC0000C94E6197B018C01611571058105910552
:102ED00019F482E0898360C083E089838EE1C82E83
:102EE000D12CDC82CB82ED82FE820F831887C80151
:102EF000B7010E94D517FC013197F7FF3BC022278D
:102F000033272E1B3F0B57016801022E04C0D694B5
:102F1000C794B794A7940A94D2F740E050E060E0D9
:102F200070E081E090E0A0E0B0E004C0880F991F5D
:102F3000AA1FBB1F2A95D2F70197A109B1098E21BB
:102F40009F21A023B1230097A105B10521F041E005
:102F500050E060E070E04A295B296C297D294D83AF
:102F60005E836F8378878EE190E08E1B9F0B9C833E
:102F70008B8312C0309781F00E2E04C0EE0CFF1C24
:102F8000001F111F0A94D2F7ED82FE820F8318876B
:102F9000CE1ADF0ADC82CB821A82CE0101960E9411
:102FA00024182896EAE00C94021AEF92FF920F93ED
:102FB0001F937B018C0180E0E81680E0F80681E039
:102FC000080780E0180788F48FEFE816F104010580
:102FD000110531F028F088E090E0A0E0B0E017C0E3
:102FE00080E090E0A0E0B0E012C080E0E81680E071
:102FF000F80680E0080781E0180728F088E190E0F3
:10300000A0E0B0E004C080E190E0A0E0B0E020E209
:1030100030E040E050E0281B390B4A0B5B0B04C04A
:1030200016950795F794E7948A95D2F7F701E45F30
:10303000FD4F8081281B310941095109C9011F91A8
:103040000F91FF90EF900895DF92EF92FF920F9310
:103050001F93FC01E480F58006811781D180808177
:10306000823048F480E090E0A0E1B0E0E82AF92A5C
:103070000A2B1B2BA5C0843009F49FC0823021F499
:10308000EE24FF24870105C0E114F10401051105B8
:1030900019F4E0E0F0E096C0628173819FEF62383E
:1030A00079070CF05BC022E83FEF261B370B2A3173
:1030B00031052CF020E030E040E050E02AC0B801BB
:1030C000A701022E04C076956795579547950A94F7
:1030D000D2F781E090E0A0E0B0E004C0880F991F33
:1030E000AA1FBB1F2A95D2F70197A109B1098E210A
:1030F0009F21A023B1230097A105B10521F081E014
:1031000090E0A0E0B0E09A01AB01282B392B4A2BCC
:103110005B2BDA01C9018F779070A070B07080349A
:103120009105A105B10539F427FF09C0205C3F4F87
:103130004F4F5F4F04C0215C3F4F4F4F5F4FE0E068
:10314000F0E02030A0E03A07A0E04A07A0E45A07E8
:1031500010F0E1E0F0E079018A0127C060387105E4
:1031600064F5FB01E158FF4FD801C7018F779070DC
:10317000A070B07080349105A105B10539F4E7FE67
:103180000DC080E490E0A0E0B0E004C08FE390E0E8
:10319000A0E0B0E0E80EF91E0A1F1B1F17FF05C0D4
:1031A00016950795F794E794319687E0169507955D
:1031B000F794E7948A95D1F705C0EE24FF248701A0
:1031C000EFEFF0E06E2F679566276795902F9F775A
:1031D000D794DD24D7948E2F8695492F462B582FD0
:1031E0005D29B701CA011F910F91FF90EF90DF9009
:1031F0000895FC01DB01408151812281622F6F77AC
:1032000070E0221F2227221F9381892F880F822B93
:10321000282F30E0991F9927991F11969C93119799
:1032200021153105A9F5411551056105710511F407
:1032300082E037C082E89FEF13969C938E9312979B
:103240009A01AB0167E0220F331F441F551F6A9597
:10325000D1F783E08C930DC0220F331F441F551FFD
:1032600012968D919C911397019713969C938E9330
:103270001297203080E0380780E0480780E4580744
:1032800058F314962D933D934D935C93179708959F
:103290002F3F310579F4411551056105710519F488
:1032A00084E08C93089564FF03C081E08C9312C086
:1032B0001C9210C02F57304013963C932E931297B8
:1032C00083E08C9387E0440F551F661F771F8A9514
:1032D000D1F7706414964D935D936D937C9317971B
:1032E00008951F93DC01FB019C91923008F447C0C4
:1032F0008081823008F443C0943051F411961C91BF
:10330000843099F58181682F70E0611B71093FC09D
:10331000843021F0923031F48230B9F181818823F8
:1033200089F12DC011961C9111978230F1F08181A5
:103330001817D9F412962D913C911397828193819D
:103340008217930794F028173907BCF014968D91D3
:103350009D910D90BC91A02D24813581468157818E
:10336000281739074A075B0718F4112341F00AC0F0
:1033700082179307A407B50740F4112319F061E001
:1033800070E005C06FEF7FEF02C060E070E0CB013E
:103390001F910895AA1BBB1B51E107C0AA1FBB1FA9
:1033A000A617B70710F0A61BB70B881F991F5A95D1
:1033B000A9F780959095BC01CD0108952F923F9279
:1033C0004F925F926F927F928F929F92AF92BF9235
:1033D000CF92DF92EF92FF920F931F93CF93DF93E1
:1033E000CDB7DEB7CA1BDB0B0FB6F894DEBF0FBE3E
:1033F000CDBF19942A88398848885F846E847D847B
:103400008C849B84AA84B984C884DF80EE80FD808C
:103410000C811B81AA81B981CE0FD11D0FB6F89402
:10342000DEBF0FBECDBFED010895FA01EE0FFF1F05
:1034300030962105310599F16115710561F48038E7
:10344000BFE39B0749F168949038810561F08038AB
:10345000BFEF9B0741F0992342F5FF3FE10531059E
:10346000210511F1E8940894E795D901AA2329F4DC
:10347000AB2FBE2FF85FD0F310C0FF5F70F4A6959E
:10348000E0F7F73950F019F0FF3A38F49F779F933F
:103490000CD00F9007FC905808953EF049C060E0B2
:1034A00070E080E89FE308954FE79F775F934F9325
:1034B0003F932F93D0D02F913F914F915F9114DA8A
:1034C00005C019F40EF02EC07DC032C061D0C8F323
:1034D0009638C0F707F80F92E8942BE33AEA48EBE6
:1034E0005FE738D10F920F920F924DB75EB70F92F0
:1034F000F2D0E4EEF0E01FD04F915F91EF91FF9199
:10350000E595EE1FFF1F49F0FE57E0684427EE0FD8
:10351000441FFA95E1F74195550B64D00F9007FED3
:1035200058C0089597F99F6780E870E060E00895BB
:103530009FEF80EC0895DF93CF931F930F93FF923B
:10354000EF92DF927B018C01689405C0DA2EEF01C7
:10355000FFD0FE01E894A5912591359145915591B3
:10356000AEF3EF0159D1FE019701A801DA9479F782
:10357000DF90EF90FF900F911F91CF91DF91089511
:1035800057FD9058440F551F59F05F3F71F0479514
:10359000880F97FB991F61F09F3F79F087950895F9
:1035A000121613061406551FF2CF4695F1DF08C018
:1035B000161617061806991FF1CF86957105610535
:1035C00008940895E894BB2766277727CB0197F9DD
:1035D00008959B01AC0160E070E080E89FE37ECA43
:1035E000A1CF6DC1D5DFE8F39923D9F3940F511D15
:1035F000BBF39150504094F059F0882332F0660F9D
:10360000771F881F91505040C1F79E3F510544F7E6
:10361000880F911D9695879597F908955F3FACF0B7
:10362000983E9CF0BB27869577956795B79508F4EB
:10363000B1609395C1F7BB0F58F711F460FFE8CF65
:103640006F5F7F4F8F4F9F4FE3CFBDCF0EF037C1DE
:103650006FCF689467CF9CDFC8F39923D1F3C6F38B
:10366000DF93CF931F930F93FF92C92FDD278823FA
:103670002AF02197660F771F881FDAF720E030E0E5
:1036800040E85FEB9FE3883920F0803E30F02196E0
:103690008F77FDD8ECE0F1E003C0F9D8E9E3F1E081
:1036A0004ADF8B01BE01EC01FB2E6F577109759546
:1036B000771F880B990B4EDB28E132E741E35FE38C
:1036C00047D0AF2D9801AE01FF900F911F91CF9180
:1036D000DF91A2D010C1FA01DC01AA0FBB1F9B0130
:1036E000AC01BF5728F422273327442750781FC046
:1036F000B75188F4AB2F0024469537952795011CC8
:10370000A395D2F3002069F0220F331F441FB39515
:10371000DAF30DD08BC861307105A0E88A07B9468D
:1037200030F49B01AC016627772788279078309684
:1037300021F020833183428353830895CED028F033
:10374000D3D018F0952309F0EDCEF2CE11243BCF63
:1037500017DFA0F3959FD1F3950F50E0551F629F9F
:10376000F001729FBB27F00DB11D639FAA27F00DDA
:10377000B11DAA1F649F6627B00DA11D661F829F01
:103780002227B00DA11D621F739FB00DA11D621FE6
:10379000839FA00D611D221F749F3327A00D611D03
:1037A000231F849F600D211D822F762F6A2F1124E5
:1037B0009F5750408AF0E1F088234AF0EE0FFF1F38
:1037C000BB1F661F771F881F91505040A9F79E3F6F
:1037D000510570F0A7CEF7CE5F3FECF3983EDCF3D7
:1037E000869577956795B795F795E7959F5FC1F7AC
:1037F000FE2B880F911D9695879597F908956DD0AA
:1038000030F072D020F031F49F3F11F41EF490CECE
:103810000EF4E095E7FB86CEE92FB2DE80F3BA170F
:10382000620773078407950718F071F49EF5CACEF6
:103830000EF4E0950B2EBA2FA02D0B01B9019001CB
:103840000C01CA01A0011124FF27591B99F0593F0F
:1038500050F4503E68F11A16F040A22F232F342F57
:103860004427585FF3CF469537952795A795F040A5
:103870005395C9F77EF41F16BA0B620B730B840BBA
:10388000BAF09150A1F0FF0FBB1F661F771F881F72
:10389000C2F70EC0BA0F621F731F841F48F48795CA
:1038A00077956795B795F7959E3F08F0B3CF9395B9
:1038B000880F08F09927EE0F9795879508959F3FF9
:1038C00031F0915020F4879577956795B795880FDB
:1038D000911D9695879597F9089500240A941616D8
:1038E000170618060906089500240A9412161306EE
:1038F000140605060895092E0394000C11F488237C
:1039000052F0BB0F40F4BF2B11F460FF04C06F5F97
:0C3910007F4F8F4F9F4F0895F894FFCF1A
:10391C000100010000000000000000000001020294
:10392C00030303030404040404040404050505054B
:10393C000505050505050505050505050606060627
:10394C00060606060606060606060606060606060B
:10395C0006060606060606060606060607070707F7
:10396C0007070707070707070707070707070707DB
:10397C0007070707070707070707070707070707CB
:10398C0007070707070707070707070707070707BB
:10399C0007070707070707070707070708080808A7
:1039AC00080808080808080808080808080808088B
:1039BC00080808080808080808080808080808087B
:1039CC00080808080808080808080808080808086B
:1039DC00080808080808080808080808080808085B
:1039EC00080808080808080808080808080808084B
:1039FC00080808080808080808080808080808083B
:103A0C00080808080808080808080808080808082A
:0C3A1C000808080808080808080808083E
:00000001FF
